:020000040800F2
:10000000E8140020C10200081903000819030008C1
:100010001903000819030008190300080000000074
:1000200000000000000000000000000019030008AC
:100030001903000800000000190300081106000859
:100040001903000819030008190300081903000820
:10005000190300081903000819030008D903000850
:100060001903000819030008190300081903000800
:1000700019030008190300081903000819030008F0
:1000800019030008190300081903000819030008E0
:1000900019030008190300081903000819030008D0
:1000A00019030008190300081903000819030008C0
:1000B00019030008190300081903000819030008B0
:1000C00019030008190300081903000819030008A0
:1000D0001903000819030008190300081903000890
:1000E0001903000819030008190300081903000880
:1000F0001903000819030008190300081903000870
:10010000190300081903000819030008190300085F
:10011000190300081903000819030008190300084F
:10012000190300081903000819030008190300083F
:10013000190300081903000819030008190300082F
:10014000190300081903000819030008190300081F
:10015000190300081903000819030008190300080F
:1001600019030008190300081903000819030008FF
:1001700019030008190300081903000819030008EF
:10018000190300081903000890B484B000AF0346B7
:100190000A46FB711346BB710023FB60BB7903F079
:1001A00003039B000F2202FA03F3FB601649BB799D
:1001B0009B08DBB21846144ABB799B08DBB20233BA
:1001C00052F82320FB68DB431A40831C41F82320AC
:1001D0000D48BB799B08DBB21C460B4ABB799B08D8
:1001E000DBB2023352F82320F979BB7903F0030321
:1001F0009B0001FA03F31A43A31C40F82320103795
:10020000BD4690BC704700BF0038014080B483B049
:1002100000AF0346FB71084A074B1B6823F0040339
:100220001360FB79DB08DAB2044B1A700C37BD4659
:100230005DF8047B704700BF10E000E04408002038
:1002400080B582B000AF0346FB8003E040F2E730A8
:1002500000F008F8FB885A1EFA80002BF6D1083708
:10026000BD4680BD80B485B000AF7860124A134BA4
:100270001B7819467B6803FB01F353600E4B002289
:100280009A600D4B01221A600B4B1B68FB60FB68E8
:1002900003F00103002B04D0FB6803F48033002B30
:1002A000F2D0054B00221A60034B00229A601437EB
:1002B000BD465DF8047B704710E000E04408002074
:1002C00080B582B000AF0F4B7B600F4B3B6007E007
:1002D0003B681A1D3A607A68111D796012681A60CD
:1002E0003B680A4A9342F3D309480A494FF0000297
:1002F0008842B8BF40F8042BFADB00F099F80837C1
:10030000BD4680BD0C3800080000002044080020D5
:1003100044080020E40C002080B400AFFEE700BFDA
:1003200080B400AF054A054BD3F8883043F470031E
:10033000C2F88830BD465DF8047B704700ED00E0F0
:1003400080B483B000AF03463960FB7197F9073082
:10035000002B0BDA0D49FB7903F00F03043B3A68DD
:10036000D2B21201D2B20B441A7609E0084997F9C9
:1003700007303A68D2B21201D2B20B4483F800239C
:100380000C37BD465DF8047B704700BF00ED00E010
:1003900000E100E080B582B000AF78607B68B3F127
:1003A000807F01D3012311E00A4A7B6823F07F4359
:1003B000013B53604FF0FF300F21FFF7C1FF054BAA
:1003C00000229A60034B07221A6000231846083760
:1003D000BD4680BD10E000E080B500AF022002F015
:1003E00045FD0346002B02D0022002F063FD80BDD4
:1003F00080B582B000AF78600B46FB707B68093334
:1004000009481946012202F01DFA0346FB70FB78E9
:10041000002B04D105484FF4005100F013FE18469C
:100420000837BD4680BD00BF8C080020000C02408C
:1004300090B59FB004AF00F05FFE0820012100F0EE
:10044000EDF80120012100F0E9F84FF470433B651D
:10045000012387F85430002387F85630032387F8A8
:100460005530002387F8573007F150036348194689
:1004700000F04CFDFFF754FF5020FFF7C7FE00F0DF
:1004800029F96FF0040002F083FD5D48FFF782FF59
:100490000123BB64002387F84C30002387F84F30DA
:1004A00007F148035748194600F030FD072387F845
:1004B0004430002387F84530002387F84630012375
:1004C00087F8473007F14403184602F001FD022384
:1004D000FB63002387F84030082387F8413001236D
:1004E00087F8423007F13C03184602F04DFC00202B
:1004F0000021FFF749FE00237B6600233B664FF097
:10050000FF33FB65002000F0E3FA00203E4902F0D3
:100510006FF9034687F85B3038484FF4004100F02C
:1005200083FD07F120031846384902F0FBFA034621
:1005300087F85B3097F85B30002B02D097F85B3080
:1005400057E007F1200207F108031046194602F0B0
:100550004FFB034687F85B3097F85B30002B02D0E7
:1005600097F85B3045E07B7C002B0BD100BF3B6EE6
:100570007A6E9A6121484FF4804100F055FD0023C6
:100580007B602CE0FB6DB3F1FF3F02D10023FB65E4
:1005900024E0FB6D002B13D16C4607F1140393E8A4
:1005A000070084E8070007F108030ECB386E00F05F
:1005B00069FE38663B6E7B66FB6D0133FB650DE0C3
:1005C0006C4607F1140393E8070084E8070007F17D
:1005D00008030ECB386E00F055FE3866B1E797F889
:1005E0005B30786E1946FFF703FF7B6E9B697B6675
:1005F000F5E718466C37BD4690BD00BF000C0240C1
:10060000905F010000000240B00A0020743700082B
:1006100080B500AF00F04CFC80BD00BF80B483B05B
:1006200000AF78600B46FB70FB78002B06D00949C1
:10063000084B1A6B7B6813430B6306E00549054BB7
:100640001A6B7B68DB4313400B630C37BD465DF8C8
:10065000047B70470038024080B483B000AF7860FC
:100660000B46FB70FB78002B06D00949084B1A6C2F
:100670007B6813430B6406E00549054B1A6C7B68E5
:10068000DB4313400B640C37BD465DF8047B7047B9
:100690000038024080B400AF054A054B5B8B9BB22B
:1006A00043F400639BB25383BD465DF8047B7047FF
:1006B0000004024080B400AF054A054B1B8B9BB27F
:1006C00043F400639BB21383BD465DF8047B70471F
:1006D0000004024080B588B000AF3A4A394B1B6B2A
:1006E00043F002031363374A364B1B6C43F48043D9
:1006F00013644FF480400121FFF7AEFF0220012177
:10070000FFF78CFF304A304B1B6843F480031360C3
:100710002D4A2D4B9B6843F4400393602A480D21DA
:10072000052200F0A1FC28480E21052200F09CFCC7
:1007300025480F21052200F097FC4FF46043BB6170
:1007400002233B7702237B770123FB7707F1180312
:100750001D48194600F0DAFB0023BB804FF482737A
:10076000FB8000233B8102237B810123BB814FF46B
:100770000073FB8108233B8200237B820723BB821B
:100780003B1D1248194602F07BFA1048002102F086
:10079000DBFA0E48012102F0B7FA0A4A094B1B6A3C
:1007A00043F4004313620A20FFF74AFD054A054B54
:1007B0001B6A23F400431362FFF77CFF2037BD461A
:1007C00080BD00BF003802400004024000380040F5
:1007D00080B485B000AF0346FB710023FB7300BFFC
:1007E0000D4B1B899BB203F00203002BF8D00A4B80
:1007F000FA7992B29A8100BF074B1B899BB203F032
:100800000103002BF8D0044B9B899BB2FB73143778
:10081000BD465DF8047B70470038004080B483B06B
:1008200000AF0023BB7100BF124B1B899BB203F0CA
:100830000203002BF8D00F4BFF229A8100BF0D4B13
:100840001B899BB203F00103002BF8D00023FB713E
:1008500002E0FB790133FB71FB79092BF9D9054BD8
:100860009B899BB2BB71BB7918460C37BD465DF8BE
:10087000047B70470038004080B582B000AF7860DC
:10088000FFF7CCFF03461A467B681A700837BD464F
:1008900080BD00BF80B582B000AF0B4B32221A7012
:1008A000FFF7BCFFFFF7BAFF0346FB71FB79FF2B95
:1008B00004D0054B1B78DBB2002BF3D1FB79184633
:1008C0000837BD4680BD00BF4608002080B582B015
:1008D00000AFFFF7EFFE0023FB7105E0FF20FFF7FD
:1008E00077FFFB790133FB71FB79092BF6D9034BB9
:1008F00001221A700837BD4680BD00BF480800209D
:1009000080B400AF034B00221A70BD465DF8047B33
:10091000704700BF4808002080B584B000AF786001
:100920003960174B0A221A70FFF778FF0346FB73F2
:10093000FB7BFF2B04D1124B1B78DBB2002BF3D1D6
:10094000FB7BFE2B01D0002316E07B685A1C7A60EB
:100950001846FFF791FF7B685A1C7A601846FFF72C
:100960008BFF3B68023B3B603B68002BEDD1FFF700
:1009700055FFFFF753FF012318461037BD4680BDD2
:100980004508002080B584B000AF78600B46FB704E
:100990000023BB60FFF77EFF0346FF2B01D000233F
:1009A0003FE0FB781846FFF713FFFB78FD2B30D0B4
:1009B0000023BB737B685A1C7A601B781846FFF7CC
:1009C00007FF7B685A1C7A601B781846FFF700FF08
:1009D000BB7B013BBB73BB7B002BEBD1FFF71EFF47
:1009E000FFF71CFF0CE0FFF719FF0346FB73FB7BCF
:1009F00003F01F03052B00D105E0BB680133BB608A
:100A0000BB68402BEFD900BFFFF708FF0346002B60
:100A1000FAD0FB7B03F01F03052B01D1012300E07B
:100A2000002318461037BD4680BD00BF80B584B096
:100A300000AF03463960FB71FFF72CFF0346FF2B25
:100A400001D0FF2340E0FB791846FFF7C1FE3B6869
:100A50001B0EDBB21846FFF7BBFE3B681B0CDBB27C
:100A60001846FFF7B5FE3B681B0ADBB21846FFF7D6
:100A7000AFFE3B68DBB21846FFF7AAFE0023FB730C
:100A8000FB79402B01D19523FB73FB79482B01D1D6
:100A90008723FB73FB7B1846FFF79AFEFB794C2BF1
:100AA00001D1FFF7BBFEE823FB73FFF7B7FE034658
:100AB000BB73BB7B5BB2002B05DAFB7B013BFB739B
:100AC000FB7B002BF1D1BB7B18461037BD4680BDA8
:100AD00090B585B000AF0346FB71FB79002B01D0C8
:100AE0000123D3E06B4B1B78DBB203F00203002B36
:100AF00003D0684B1B78DBB2C8E0FFF7E7FEFFF7D7
:100B0000C9FD0023BB7340200021FFF78FFF034680
:100B1000012B40F0A380604B64221A7048204FF4F0
:100B2000D571FFF783FF0346012B57D10023FB73D9
:100B30000CE0FC7BFFF772FE03461A4607F1100338
:100B4000234403F8082CFB7B0133FB73FB7B032B53
:100B5000EFD9BB7A012B40F08180FB7AAA2B7DD1A3
:100B600077200021FFF762FF0346012B08D8692098
:100B70004FF08041FFF75AFF0346002B00D104E0FD
:100B8000454B1B78DBB2002BEAD1434B1B78DBB221
:100B9000002B63D07A200021FFF748FF0346002B8B
:100BA0005CD10023FB730CE0FC7BFFF737FE0346B0
:100BB0001A4607F11003234403F8082CFB7B01338A
:100BC000FB73FB7B032BEFD93B7A03F04003002B35
:100BD00001D0062300E00223BB733FE07720002111
:100BE000FFF724FF0346012B08D869200021FFF7F7
:100BF0001DFF0346012B01D8022300E00123BB7334
:100C0000BB7B022B0ED177200021FFF70FFF03469D
:100C1000012B0FD869200021FFF708FF0346002BA6
:100C200008D10CE041200021FFF700FF0346002B14
:100C300000D104E0184B1B78DBB2002BE0D1164B3F
:100C40001B78DBB2002B07D050204FF40071FFF768
:100C5000EDFE0346002B01D00023BB730F4ABB7B84
:100C60001370FFF727FDFFF7D9FDBB7B002B08D0E2
:100C7000084B1B78DBB223F00103DAB2054B1A7084
:100C800001E0FFF73DFE034B1B78DBB2184614373B
:100C9000BD4690BD00000020450800204708002008
:100CA00080B483B000AF0346FB71FB79002B01D009
:100CB000012302E0044B1B78DBB218460C37BD461B
:100CC0005DF8047B704700BF0000002080B584B051
:100CD00000AFB9607A601A460346FB731346BB73D4
:100CE000FB7B002B02D1BB7B002B01D1042350E006
:100CF0002A4B1B78DBB203F00103002B01D0032346
:100D000047E0274B1B7803F00403002B02D17B68DC
:100D10005B027B60FFF7BEFCBB7B012B11D1512036
:100D20007968FFF783FE0346002B28D1B8684FF49B
:100D30000071FFF7F1FD0346002B20D00023BB73A9
:100D40001DE052207968FFF771FE0346002B16D193
:100D5000B8684FF40071FFF7DFFD0346002B00D1A8
:100D600009E0BB6803F50073BB60BB7B013BBB7351
:100D7000BB7B002BECD14C200021FFF757FEFFF787
:100D800099FCFFF74BFDBB7B002B14BF0123002315
:100D9000DBB218461037BD4680BD00BF0000002002
:100DA0004708002080B584B000AFB9607A601A4669
:100DB0000346FB731346BB73FB7B002B02D1BB7B4B
:100DC000002B01D104236BE0374B1B78DBB203F01F
:100DD0000103002B01D0032362E0334B1B78DBB20D
:100DE00003F00403002B01D0022359E02F4B1B78A2
:100DF00003F00403002B02D17B685B027B60FFF7EA
:100E000049FCBB7B012B10D158207968FFF70EFEFF
:100E10000346002B3AD1B868FE21FFF7B3FD034625
:100E2000002B33D00023BB7330E0204B1B7803F042
:100E30000203002B08D077200021FFF7F7FDBB7BD2
:100E400057201946FFF7F2FD59207968FFF7EEFDAC
:100E50000346002B1AD1B868FC21FFF793FD034627
:100E6000002B00D109E0BB6803F50073BB60BB7BBE
:100E7000013BBB73BB7B002BEDD10020FD21FFF7B5
:100E800081FD0346002B01D10123BB73FFF712FC48
:100E9000FFF7C4FCBB7B002B14BF01230023DBB294
:100EA00018461037BD4680BD0000002047080020CE
:100EB00080B483B000AF0E4B1B78FB71FB79002B25
:100EC00005D0FB79013BFB71094AFB791370094B93
:100ED0001B78FB71FB79002B05D0FB79013BFB7183
:100EE000044AFB7913700C37BD465DF8047B7047EC
:100EF000450800204608002080B400AF024B184689
:100F0000BD465DF8047B70470060614880B487B0DF
:100F100000AF7860396000237B6100233B610023D0
:100F2000FB6000237B6176E07B69012202FA03F318
:100F30003B613B681A683B691340FB60FA683B6998
:100F40009A4265D17B681A687B695B001946032366
:100F50008B40DB431A407B681A607B681A683B68E9
:100F60001B7919467B695B0001FA03F31A437B681E
:100F70001A603B681B79012B03D03B681B79022B5D
:100F80002ED17B689A687B695B00194603238B40EE
:100F9000DB431A407B689A607B689A683B685B79A0
:100FA00019467B695B0001FA03F31A437B689A6078
:100FB0007B685A687B699BB2194601238B40DB43EF
:100FC0001A407B685A607B685B683A689279114680
:100FD0007A6992B201FA02F292B21A437B685A60BD
:100FE0007B68DA687B699BB25B00032101FA03F33B
:100FF000DB431A407B68DA607B68DA683B68DB7940
:1010000019467B695B0001FA03F31A437B68DA60D7
:101010007B6901337B617B690F2B85D91C37BD460A
:101020005DF8047B704700BF80B483B000AF786088
:101030000B467B807B687A881A830C37BD465DF847
:10104000047B704780B483B000AF78600B467B8030
:101050007B685A697B885A407B685A610C37BD4669
:101060005DF8047B704700BF80B485B000AF786046
:101070000B467B8013467B700023FB600023BB6024
:101080007B787A8802F0070292009340FB607B88AD
:10109000DB089BB218467B88DB089BB21A467B684C
:1010A000083253F822207B8803F007039B0019467F
:1010B0000F238B40DB4302EA03017B6800F1080247
:1010C00043F822107B88DB089BB21A467B68083203
:1010D00053F82220FB681343BB607B88DB089BB27C
:1010E0001A467B680832B96843F822101437BD46A7
:1010F0005DF8047B704700BF80B500AF114A114B0B
:101100001B6843F0010313600E4B00229A600D4AE6
:101110000C4B1B6823F0847323F480331360094B5A
:10112000094A5A60074A074B1B6823F4802313605F
:10113000044B0022DA6000F00BF8044B4FF0006221
:101140009A6080BD003802401030002400ED00E0BD
:1011500080B483B000AF00237B6000233B60354A3E
:10116000344B1B6843F480331360324B1B6803F429
:1011700000333B607B6801337B603B68002B03D10D
:101180007B68B3F5A06FF0D12A4B1B6803F40033E2
:10119000002B02D001233B6001E000233B603B6851
:1011A000012B42D1234A234B1B6C43F08053136421
:1011B000214A214B1B6843F4804313601D4A1D4B99
:1011C0009B6893601B4A1B4B9B6843F400439360EE
:1011D000184A184B9B6843F4A0539360154B174A69
:1011E0005A60144A134B1B6843F08073136000BFAE
:1011F000104B1B6803F00073002BF9D0104B40F22A
:1012000005621A600B4A0B4B9B6823F00303936043
:10121000084A084B9B6843F00203936000BF054BEC
:101220009B6803F00C03082BF9D10C37BD465DF821
:10123000047B7047003802400070004008544007AB
:10124000003C024080B485B000AF78600B4B1B6857
:10125000002B02D1094B0A4A1A60084B1B68FB603D
:10126000064B1A687B681344044A1360FB681846EF
:101270001437BD465DF8047B704700BF4C08002062
:10128000E40C002084B0B0B584B000AF786007F102
:10129000240080E80E001C2001F096FE0346FB604F
:1012A000FB681D4607F124040FCC0FC594E803002A
:1012B00085E80300FB6800229A617B68002B02D05E
:1012C0007B68FA689A61FB6818461037BD46BDE82E
:1012D000B04004B0704700BF80B487B000AFF86082
:1012E000B9607A60FB687B61BB683B6107E07B6942
:1012F0005A1C7A613A69511C396112781A707B68FC
:101300005A1E7A60002BF2D11C37BD465DF8047B73
:10131000704700BF80B487B000AFF860B9607A60F2
:10132000FB687B6105E07B695A1C7A61BA68D2B2BE
:101330001A707B685A1E7A60002BF4D11C37BD46A8
:101340005DF8047B704700BF80B489B000AFF860DF
:10135000B9607A60FB68FB61BB68BB6100237B619D
:1013600000BF7B685A1E7A60002B0DD0FB695A1CA7
:10137000FA611B781946BB695A1CBA611B78CB1AF3
:101380007B617B69002BECD07B6918462437BD4616
:101390005DF8047B704700BF80B483B000AF786015
:1013A000396002E07B6801337B607B681B78002B2F
:1013B00005D07B681B781A463B689A42F2D17B685D
:1013C0001B7818460C37BD465DF8047B704700BF9C
:1013D00080B584B000AF786039607B68DB6AFB6001
:1013E000FA683B689A424BD07B681B79002B32D05D
:1013F0007B685A787B68303310461946FA680123B7
:10140000FFF7D0FC0346002B01D0012339E07B68B5
:1014100000221A717B681A6A7B68DB691A44FB68D0
:101420009A4218D97B68DB78FB7211E07B68DB6934
:10143000FA681344FB607B685A787B683033104647
:101440001946FA680123FFF7ADFCFB7A013BFB72FA
:10145000FB7A012BEAD83B68002B11D07B685A78C5
:101460007B683033104619463A680123FFF72EFC9B
:101470000346002B01D0012303E07B683A68DA625F
:10148000002318461037BD4680BD00BF80B483B02E
:1014900000AF786039603B68023B3B607B689B69CA
:1014A0009A1E3B689A4201D8002308E07B689B782B
:1014B0001A463B6803FB02F27B689B6A134418469A
:1014C0000C37BD465DF8047B704700BF80B586B021
:1014D00000AF786039603B68012B04D97B689A695A
:1014E0003B689A4201D8012398E07B681B78022B65
:1014F00048D0032B67D0012B40F08E803B687B6186
:101500007B695B087A6913447B617B681A6A7B6933
:101510005B0A134478681946FFF75AFF0346002B0D
:1015200000D079E07B69C3F308037A68134493F829
:1015300030303B617B6901337B617B681A6A7B6970
:101540005B0A134478681946FFF742FF0346002BF5
:1015500000D061E07B69C3F308037A68134493F811
:1015600030301B021A463B6913433B613B6803F072
:101570000103002B02D03B691B094FE03B69C3F319
:101580000B034BE07B681A6A3B681B0A13447868BC
:101590001946FFF71DFF0346002B00D03CE03B68D7
:1015A0005B0003F4FF7330337A681344FB60FB681D
:1015B00001331B781B029AB2FB681B789BB2134362
:1015C0009BB29BB22AE07B681A6A3B68DB09134432
:1015D00078681946FFF7FCFE0346002B00D01BE09D
:1015E0003B689B0003F4FE7330337A681344FB605E
:1015F000FB6803331B781A06FB6802331B781B0455
:101600001343FA680132127812021343FA6812780F
:10161000134323F0704301E04FF0FF3318461837AF
:10162000BD4680BD80B588B000AFF860B9607A6013
:10163000BB68012B04D9FB689A69BB689A4202D83F
:101640000223FB77E3E0FB681B78022B70D0032BAF
:1016500000F09280012B40F0D580BB68BB61BB6974
:101660005B08BA691344BB61FB681A6ABB695B0A11
:101670001344F8681946FFF7ABFE0346FB77FB7F80
:10168000002B00D0C0E0BB69C3F308033033FA6815
:1016900013447B61BB6803F00103002B0DD07B6911
:1016A0001B78DBB203F00F03DAB27B68DBB21B01FD
:1016B000DBB21343DBB2DBB201E07B68DBB27A69F9
:1016C0001370BB690133BB61FB6801221A71FB68AF
:1016D0001A6ABB695B0A1344F8681946FFF778FE7B
:1016E0000346FB77FB7F002B00D08DE0BB69C3F383
:1016F00008033033FA6813447B61BB6803F00103CD
:10170000002B03D07B681B09DBB20EE07B691B78E2
:10171000DBB223F00F03DAB27B681B0ADBB203F003
:101720000F03DBB21343DBB2DBB27A6913706BE0F9
:10173000FB681A6ABB681B0A1344F8681946FFF76E
:1017400047FE0346FB77FB7F002B00D05CE0BB68C5
:101750005B0003F4FF733033FA6813447B617B68EA
:10176000DAB27B691A707B6901337A6892B2120A25
:1017700092B2D2B21A7047E0FB681A6ABB68DB0902
:101780001344F8681946FFF723FE0346FB77FB7FF7
:10179000002B00D038E0BB689B0003F4FE733033AD
:1017A000FA6813447B617B6903331B781A067B69F3
:1017B00002331B781B0413437A6901321278120238
:1017C00013437A691278134303F070437A68134322
:1017D0007B607B68DAB27B691A707B6901337A6857
:1017E00092B2120A92B2D2B21A707B6902337A684C
:1017F000120CD2B21A707B6903337A68120ED2B21D
:101800001A7001E00223FB77FB6801221A71FB7F4B
:1018100018462037BD4680BD80B584B000AF7860E3
:1018200039603B68012B04D97B689A693B689A420E
:1018300002D80223FB7337E00023FB732FE07868A4
:101840003968FFF743FEB860BB68002B00D12BE07E
:10185000BB68012B02D10223FB7325E0BB68B3F107
:10186000FF3F02D10123FB731EE078683968002234
:10187000FFF7D8FE0346FB73FB7B002B00D013E081
:101880007B681B69B3F1FF3F07D07B681B695A1C5B
:101890007B681A617B6801225A71BB683B607B6878
:1018A0009A693B689A42CAD8FB7B18461037BD46F6
:1018B00080BD00BF80B586B000AF786039603B68FE
:1018C000002B0DD17B68DB683B613B69002B04D0AA
:1018D0007B689A693B699A4215D801233B6112E003
:1018E00078683968FFF7F2FDB860BB68012B01D852
:1018F000012366E07B689A69BB689A4201D9BB689C
:101900005FE03B683B613B697B617B6901337B61E5
:101910007B689A697B699A4207D802237B617A695E
:101920003B699A4201D900234BE078687969FFF757
:10193000CDFDB860BB68002B0CD100BF7868796919
:101940006FF07042FFF76EFE0346FB73FB7B002BCC
:101950001AD10FE0BB68B3F1FF3F02D0BB68012B87
:1019600001D1BB682DE07A693B699A4201D100231D
:1019700027E0CAE73B68002B06D0786839687A69A7
:10198000FFF750FE0346FB73FB7B002B10D17B68F7
:101990007A69DA607B681B69B3F1FF3F10D07B681E
:1019A0001B695A1E7B681A617B6801225A7107E025
:1019B000FB7B012B02D14FF0FF3300E001237B6161
:1019C0007B6918461837BD4680BD00BF80B584B01E
:1019D00000AF78600B467B807B687A88DA807B6812
:1019E0009B68FB60FB68012B05D07B681B689A69CC
:1019F000FB689A4201D8022365E0FB68002B08D1FE
:101A00007B681B681B78032B03D17B681B685B6AB0
:101A1000FB60FB68002B14D17B68FA68DA607B6896
:101A20001B681B897A889A4201D302234BE07B68AA
:101A30001B685B6A7A88120992B21A447B681A6141
:101A400036E07B681B689B789BB21B017B811BE0A7
:101A50007B681B681846F968FFF738FDF860FB687B
:101A6000B3F1FF3F01D101232DE0FB68012B05D924
:101A70007B681B689A69FB689A4201D8022322E0BE
:101A80007A887B89D31A7B807A887B899A42DFD2D5
:101A90007B68FA68DA607B681B681846F968FFF7AC
:101AA000F5FC02467B881B099BB21A447B681A61CD
:101AB0007B681A687B8803F00F035B0130331A449C
:101AC0007B685A61002318461037BD4680BD00BFB1
:101AD00090B585B000AF786039607B68DB880133F2
:101AE0003B813B89002B03D07B681B69002B01D114
:101AF0000423BCE03B8903F00F039BB2002B40F0B2
:101B0000A8807B681B695A1C7B681A617B68DB684C
:101B1000002B08D17B681B681B893A899A42C0F068
:101B200098800423A3E03B891B099BB21A467B687B
:101B30001B689B78013B1340002B40F08A807B6838
:101B40001A687B68DB6810461946FFF7BFFCF8602F
:101B5000FB68012B01D8022389E0FB68B3F1FF3F4A
:101B600001D1012383E07B681B689A69FB689A4274
:101B700063D83B68002B01D1042378E07B681A68A6
:101B80007B68DB6810461946FFF794FEF860FB6837
:101B9000002B01D107236AE0FB68012B01D102234E
:101BA00065E0FB68B3F1FF3F01D101235FE07B6893
:101BB0001B6818460021FFF70BFC0346002B01D0E1
:101BC000012354E07B681B683033184600214FF432
:101BD0000072FFF79FFB7B681C687B681B681846D8
:101BE000F968FFF753FC0346E3620023FB7216E03B
:101BF0007B681B6801221A717B681B6818460021EC
:101C0000FFF7E6FB0346002B01D001232FE07B68A2
:101C10001B68DA6A0132DA62FB7A0133FB727B6895
:101C20001B689B78FA7A9A42E2D37B681B687A68D1
:101C30001268D16AFA7A8A1ADA627B68FA68DA601C
:101C40007B681B681846F968FFF720FC02467B6832
:101C50001A617B683A89DA807B681A683B8903F0ED
:101C60000F035B0130331A447B685A610023184626
:101C70001437BD4690BD00BF80B586B000AF786018
:101C800078680021FFF7A2FE0346FB75FB7D002B61
:101C900001D0FB7D35E07B681A687B681B691046C4
:101CA0001946FFF795FB0346FB75FB7D002B00D023
:101CB00026E07B685B693B613B691B78FB73FB7BC0
:101CC000002B02D10423FB751AE03B690B331B7810
:101CD00003F00803002B0AD17B689B693869194619
:101CE0000B22FFF731FB0346002B00D108E0786898
:101CF0000021FFF7EDFE0346FB75FB7D002BCAD0EC
:101D0000FB7D18461837BD4680BD00BF80B586B044
:101D100000AF78600423FB7531E07B681A687B684C
:101D20001B6910461946FFF753FB0346FB75FB7D05
:101D3000002B00D027E07B685B693B613B691B7827
:101D4000FB73FB7B002B02D10423FB751BE0FB7BA9
:101D5000E52B0AD0FB7B2E2B07D03B690B331B787E
:101D600003F00803002B00D10DE078680021FFF795
:101D7000AFFE0346FB75FB7D002B00D003E07B68C4
:101D80001B69002BC9D1FB7D002B02D07B68002290
:101D90001A61FB7D18461837BD4680BD80B584B0FA
:101DA00000AF786078680021FFF710FE0346FB73F0
:101DB000FB7B002B20D17B681A687B681B6910466F
:101DC0001946FFF705FB0346FB73FB7B002B00D096
:101DD00012E07B685B691B78BB73BB7BE52B0BD088
:101DE000BB7B002B08D078680121FFF771FE03460A
:101DF000FB73FB7B002BDED0FB7B002B1FD17B68B2
:101E00001A687B681B6910461946FFF7E1FA03461A
:101E1000FB73FB7B002B12D17B685B69BB60B868EE
:101E200000212022FFF776FA7B689B69B868194683
:101E30000B22FFF751FA7B681B6801221A71FB7BAA
:101E400018461037BD4680BD80B588B000AF7860B9
:101E500039607B689B69FB60F86820210B22FFF7E3
:101E600059FA0023FB7700233B613B697B61082320
:101E7000BB613B681B68BB607B695A1C7A61BA68AE
:101E800013441B78BB77BB7F202B53D9BB7F2F2BF1
:101E900050D0BB7F5C2B4DD0BB7F2E2B03D03A693B
:101EA000BB699A420FD3BB69082B02D1BB7F2E2B93
:101EB00001D0062373E008233B610B23BB61FB7F4A
:101EC0009B00FB7735E0BB7F5BB2002B08DAFB7F22
:101ED00043F00303FB77BB7F803B334AD35CBB7784
:101EE000BB7F32481946FFF757FA0346002B01D053
:101EF000062354E0BB7F402B07D9BB7F5A2B04D865
:101F0000FB7F43F00203FB770CE0BB7F602B09D91A
:101F1000BB7F7A2B06D8FB7F43F00103FB77BB7FA7
:101F2000203BBB773B695A1C3A61FA681344BA7F7D
:101F30001A70A1E7BA687B691A443B681A60BB7FD4
:101F4000202B01D8042300E00023BB773B69002B42
:101F500001D1062323E0FB681B78E52B02D1FB6847
:101F600005221A70BB69082B02D1FB7F9B00FB770F
:101F7000FB7F03F00303012B03D1BB7F43F010036E
:101F8000BB77FB7F03F00C03042B03D1BB7F43F033
:101F90000803BB77FB680B33BA7F1A70002318461F
:101FA0002037BD4680BD00BF88370008783700085D
:101FB00080B489B000AF786039603B680933BB6199
:101FC0007B681B69002B76D07B685B693B613B6952
:101FD0001B7BFB730023FB6115E03A69FB6913442B
:101FE0001B78FB75FB7D202B00D10FE0FB7D052BC3
:101FF00001D1E523FB75BB695A1CBA61FA7D1A70E1
:10200000FB690133FB61FB69072BE6D93B690833A8
:102010001B78202B1BD0BB695A1CBA612E221A7068
:102020000823FB6110E03A69FB6913441B78FB75D8
:10203000FB7D202B00D10AE0BB695A1CBA61FA7DF6
:102040001A70FB690133FB61FB690A2BEBD93B6911
:10205000DA7A3B681A723B691F331B781A063B69B0
:102060001E331B781B0413433A691D321278120287
:1020700013433A691C3212781A433B681A603B6971
:1020800019331B781B029AB23B6918331B789BB239
:1020900013439BB29AB23B689A803B6917331B7813
:1020A0001B029AB23B6916331B789BB213439BB257
:1020B0009AB23B68DA80BB6900221A702437BD46A9
:1020C0005DF8047B704700BF80B584B000AF7860D6
:1020D00039603B681B782F2B03D03B681B785C2B47
:1020E00002D13B6801333B607B6800229A603B6809
:1020F0001B781F2B09D878680021FFF767FC03467F
:10210000FB737B6800225A6153E03B4678681946AE
:10211000FFF79AFE0346FB73FB7B002B00D048E0E1
:102120007868FFF7A9FD0346FB737B689B69DB7A40
:10213000BB73FB7B002B0CD0FB7B042B00D038E067
:10214000BB7B03F00403002B02D10523FB7330E0BB
:102150002FE0BB7B03F00403002B00D029E07B6859
:102160005B69BB60BB680B331B7803F01003002B6B
:1021700002D10523FB731CE0BB6815331B781B02DF
:102180009AB2BB6814331B789BB213439BB29BB2C9
:102190001B04BA681B321278120291B2BA681A3262
:1021A000127892B20A4392B292B21A437B689A6052
:1021B000ABE7FB7B18461037BD4680BD80B582B0CB
:1021C00000AF786039607B685A787B68303310469E
:1021D00019463A680123FEF779FD0346002B01D02A
:1021E000032343E07B6893F82F321B029AB27B688B
:1021F00093F82E329BB213439BB21BB21D4A9342FB
:1022000001D0022332E07B6893F869301A067B68BC
:1022100093F868301B0413437A6892F8672012021F
:1022200013437A6892F86620134323F07F43124ADF
:10223000934201D1002319E07B6893F885301A0698
:102240007B6893F884301B0413437A6892F88320E8
:10225000120213437A6892F88220134323F07F43DB
:10226000054A934201D1002300E0012318460837B4
:10227000BD4680BD55AAFFFF4641540080B592B0CF
:1022800000AFF860B9601346FB71FB681B68FB6226
:10229000FB6A1B78303B3B643B6C092B0BD8FB6A19
:1022A00001331B783A2B06D1FB6A0233FB62FB68D1
:1022B000FA6A1A6001E000233B643B6C002B01D0FA
:1022C0000B2363E2A64A3B6C52F82330BB62BB6827
:1022D000BA6A1A60BB6A002B01D10C2356E2BB6AB2
:1022E0001B78002B1AD0BB6A5B781846FEF7D8FC27
:1022F000034687F8273097F8273003F00103002BB7
:102300000CD1FB79002B07D097F8273003F004039A
:10231000002B01D00A2339E2002337E2BB6A0022F6
:102320001A703B6CDAB2BB6A5A70BB6A5B781846AB
:10233000FEF7CEFB034687F8273097F8273003F0E7
:102340000103002B01D0032320E2FB79002B07D0EF
:1023500097F8273003F00403002B01D00A2315E27D
:102360000023FB63B86AF96BFFF728FF034687F881
:10237000473097F84730012B22D1BB6A03F5F7733A
:102380003B623B6A04331B78002B19D03B6A0B334A
:102390001B781A063B6A0A331B781B0413433A6AFC
:1023A00009321278120213433A6A08321278134340
:1023B000FB63B86AF96BFFF701FF034687F8473004
:1023C00097F84730032B01D10123DFE197F847301D
:1023D000002B01D00D23D9E1BB6A93F83C301B02DE
:1023E0009AB2BB6A93F83B309BB213439BB21BB2C9
:1023F000B3F5007F01D00D23C8E1BB6A93F84730E5
:102400001B029AB2BB6A93F846309BB213439BB24D
:102410009BB2BB63BB6B002B12D1BB6A93F85730E6
:102420001A06BB6A93F856301B041343BA6A92F833
:10243000552012021343BA6A92F854201343BB6327
:10244000BB6ABA6BDA61BB6A93F84030FB77BB6A50
:10245000FA7FDA70FB7F012B04D0FB7F022B01D0C7
:102460000D2393E1FA7FBB6B02FB03F3BB63BB6AF3
:1024700093F83D30FB77BB6AFA7F9A70FB7F002BA5
:1024800005D0FA7FFB7F013B1340002B01D00D23C9
:102490007CE1BB6A93F842301B029AB2BB6A93F8A4
:1024A00041309BB213439BB29AB2BB6A1A81BB6A9A
:1024B0001B8903F00F039BB2002B01D00D2365E1B4
:1024C000BB6A93F844301B029AB2BB6A93F843305C
:1024D0009BB213439BB29BB27B637B6B002B12D1ED
:1024E000BB6A93F853301A06BB6A93F852301B0448
:1024F0001343BA6A92F8512012021343BA6A92F84F
:10250000502013437B63BB6A93F83F301B029AB29F
:10251000BB6A93F83E309BB213439BB2BB83BB8B29
:10252000002B01D10D2331E1BA8BBB6B1344BA6A86
:102530001289120992B21344BB617A6BBB699A4249
:1025400001D20D2322E17A6BBB69D31ABA6A927861
:10255000B3FBF2F37B617B69002B03D10D2315E103
:1025600050080020012387F847307B6940F6F57258
:10257000934202D9022387F847307B694FF6F57200
:10258000934202D9032387F847307B699A1CBB6AC0
:102590009A61FA6BBB691A44BB6A9A62BA8BFB6B8D
:1025A0001A44BB6A1A6297F84730032B1ED1BB6AE4
:1025B0001B89002B01D00D23E8E0BB6A93F85F3044
:1025C0001A06BB6A93F85E301B041343BA6A92F88A
:1025D0005D2012021343BA6A92F85C201A43BB6A68
:1025E0005A62BB6A9B699B003B631FE0BB6A1B8905
:1025F000002B01D10D23C9E0BB6A1A6ABB6B1A44D8
:10260000BB6A5A6297F84730022B03D1BB6A9B69B9
:102610005B000AE0BB6A9A6913465B0013445A08E0
:10262000BB6A9B6903F0010313443B63BB6ADA692D
:102630003B6B03F2FF135B0A9A4201D20D23A5E024
:10264000BB6A4FF0FF321A61BB6A0022DA6097F86A
:102650004730032B40F08580BB6A00225A71BB6A69
:1026600093F861301B029AB2BB6A93F860309BB258
:1026700013439BB29BB21A46FB6B1A44BB6A5A6166
:10268000BB6A5978BB6A03F13002BB6A5B690846D2
:1026900011461A460123FEF719FB0346002B60D1B1
:1026A000BB6A93F82F321B029AB2BB6A93F82E32A0
:1026B0009BB213439BB21BB2364A934251D1BB6AC1
:1026C00093F833301A06BB6A93F832301B04134375
:1026D000BA6A92F8312012021343BA6A92F8302093
:1026E00013432D4A93423CD1BB6A93F817321A0622
:1026F000BB6A93F816321B041343BA6A92F8152288
:1027000012021343BA6A92F814221343234A9342E3
:1027100027D1BB6A93F81F321A06BB6A93F81E32A0
:102720001B041343BA6A92F81D2212021343BA6AB9
:1027300092F81C221A43BB6ADA60BB6A93F81B3218
:102740001A06BB6A93F81A321B041343BA6A92F84A
:10275000192212021343BA6A92F818221A43BB6A6A
:102760001A61BB6A97F847201A700D4B1B8801331A
:102770009AB20B4B1A800A4B1A88BB6ADA80BB6A82
:102780000022DA62BB6A00221A7100231846483719
:10279000BD4680BD55AAFFFF525261417272416130
:1027A0005408002080B582B000AF78600B467B8073
:1027B0007B68002B08D07B681B78002B04D07B68DB
:1027C000DB887A889A4201D009230CE07B685B7829
:1027D0001846FEF765FA034603F00103002B01D00B
:1027E000032300E0002318460837BD4680BD00BF24
:1027F00080B485B000AF03463960FB71FB79002BD4
:1028000001D00B2316E0FB790D4A52F82330FB6010
:10281000FB68002B02D0FB6800221A703B68002B7B
:1028200002D03B6800221A70FB7905493A6841F8EA
:102830002320002318461437BD465DF8047B7047FB
:102840005008002080B592B000AFF860B960134620
:10285000FB71FB6800221A60FB7903F01F03FB7118
:10286000FB7923F00103DBB207F1080107F11C0239
:10287000084611461A46FFF701FD034687F8473020
:1028800007F110037B6397F84730002B09D1BB6831
:1028900007F11C0210461946FFF716FC034687F89D
:1028A00047303B6B3B6497F84730002B05D13B6CBE
:1028B000002B02D1062387F84730FB7903F01C0375
:1028C000002B00F0B28097F84730002B12D097F819
:1028D0004730042B07D107F11C031846FFF75EFAB7
:1028E000034687F84730FB7943F00803FB713B6BE5
:1028F0003B6412E0FB7903F00403002B03D00823B0
:1029000087F8473009E03B6C0B331B7803F0110369
:10291000002B02D0072387F8473097F84730002B69
:1029200040F08280FB7903F00803002B7CD0FEF797
:10293000E3FAF8633B6C0E33FA6BD2B21A703B6C5D
:102940000F33FA6B92B2120A92B2D2B21A703B6C87
:102950001033FA6B120CD2B21A703B6C1133FA6B53
:10296000120ED2B21A703B6C0B3300221A703B6C01
:102970001C3300221A703B6C1D3300221A703B6C12
:102980001E3300221A703B6C1F3300221A703B6CFE
:1029900015331B781B029AB23B6C14331B789BB225
:1029A00013439BB29BB21B043A6C1B321278120287
:1029B00091B23A6C1A32127892B20A4392B292B23F
:1029C0001343BB633B6C1A3300221A703B6C1B33FE
:1029D00000221A703B6C143300221A703B6C1533C2
:1029E00000221A70FB6901221A71BB6B002B1BD0ED
:1029F000FB69DB6AFB63FB691846B96BFEF70CFFEA
:102A0000034687F8473097F84730002B0CD1FB6915
:102A1000BA6B013ADA60FB691846F96BFEF7D8FC2D
:102A2000034687F847301EE01DE097F84730002B3B
:102A300019D13B6C0B331B7803F01003002B03D030
:102A4000042387F847300EE0FB7903F00203002BE4
:102A500009D03B6C0B331B7803F00103002B02D031
:102A6000072387F8473097F84730002B0FD1FB79C1
:102A700003F00803002B03D0FB7943F02003FB7124
:102A8000FB69DA6AFB68DA61FB683A6C1A6297F8EC
:102A90004730002B3FD1FB68FA799A713B6C1533B4
:102AA0001B781B029AB23B6C14331B789BB2134306
:102AB0009BB29BB21B043A6C1B321278120291B289
:102AC0003A6C1A32127892B20A4392B292B21A4314
:102AD000FB681A613B6C1F331B781A063B6C1E3374
:102AE0001B781B0413433A6C1D32127812021343F5
:102AF0003A6C1C3212781A43FB68DA60FB680022D9
:102B00009A60FB6800229A61FA69FB681A60FB69A7
:102B1000DA88FB689A8097F8473018464837BD46F0
:102B200080BD00BF80B586B000AF786039607B683B
:102B30003A46104619460022FFF7A0FB0346FB75F4
:102B4000FB7D002B4FD17B6807F108029A613B683F
:102B500078681946FFF7B8FA0346FB75FB7D002B32
:102B60003CD17B685B69002B2AD07B685B690B33A7
:102B70001B7803F01003002B20D07B685B691533B2
:102B80001B781B029AB27B685B6914331B789BB27B
:102B900013439BB29BB21B047A6852691B321278B2
:102BA000120291B27A6852691A32127892B20A43CA
:102BB00092B292B21A437B689A6001E00523FB75DA
:102BC000FB7D002B0AD17B681B68DA887B689A80C2
:102BD00078680021FEF7FAFE0346FB75FB7D042BA7
:102BE00001D10523FB75FB7D18461837BD4680BD16
:102BF00080B586B000AF786039607B681A687B6802
:102C00009B8810461946FFF7CDFD0346FB75FB7DFB
:102C1000002B2FD13B68002B06D178680021FEF7EE
:102C2000D5FE0346FB7525E07B6807F108029A6133
:102C30007868FFF76BF80346FB75FB7D042B04D126
:102C40007B6800221A610023FB75FB7D002B11D1EC
:102C500078683968FFF7ACF978680021FEF738FF2B
:102C60000346FB75FB7D042B04D17B6800221A61AF
:102C70000023FB75FB7D18461837BD4680BD00BF9D
:102C800080B485B000AF786039600023FB817B6839
:102C90001B88FB81FB8903F44153FB813B681A8845
:102CA0003B685B8813439AB23B689B8813439AB294
:102CB0003B68DB8813439AB23B681B8913439AB283
:102CC0003B685B8913439AB23B689B8913439AB272
:102CD0003B68DB8913439AB2FB891343FB817B6812
:102CE000FA891A807B689B8B9BB223F400639AB2AB
:102CF0007B689A833B681A8A7B681A821437BD46C0
:102D00005DF8047B704700BF80B483B000AF78608B
:102D10000B46FB70FB78002B08D07B681B889BB2AE
:102D200043F040039AB27B681A8007E07B681B88F7
:102D30009BB223F040039AB27B681A800C37BD46E1
:102D40005DF8047B704700BF80B483B000AF78604B
:102D50000B46FB70FB78002B08D07B681B889BB26E
:102D600043F400539AB27B681A8007E07B681B88A3
:102D70009BB223F400539AB27B681A800C37BD468D
:102D80005DF8047B704700BF80B485B000AF786009
:102D90000023FB60344BFB607B689B79002B4FD09A
:102DA0003149314B1A687B681B68DB4313400B6069
:102DB0002D492D4B5A687B681B68DB4313404B60E1
:102DC0007B681B791A46FB681344FB60FB68FA6852
:102DD00011687A6812680A431A602349224B9A687C
:102DE0007B681B68DB4313408B601F491E4BDA680E
:102DF0007B681B68DB431340CB607B685B79102BDF
:102E00000ED11949184B9A687B681B6813438B6075
:102E10001549154BDA687B681B681343CB601DE0CE
:102E2000114BFB607B685B791A46FB681344FB60BF
:102E3000FB68FA6811687A6812680A431A600DE044
:102E40007B681B791A46FB681344FB60FB68FA68D1
:102E500011687A681268D2430A401A601437BD4676
:102E60005DF8047B704700BF003C014080B485B032
:102E700000AF78600023FB730023BB600C4B1A6823
:102E80007B681340BB600A4B5A697B681340002B78
:102E900005D0BB68002B02D00123FB7301E00023A7
:102EA000FB73FB7B18461437BD465DF8047B704707
:102EB000003C014080B483B000AF7860034A7B6877
:102EC00053610C37BD465DF8047B7047003C014000
:102ED00080B485B000AF78600023FB730023BB7320
:102EE0000F237B737B68DB78002B38D0264BDB68A5
:102EF000DB4303F4E0631B0AFB73FB7BC3F10403B6
:102F0000BB737A7BFB7B42FA03F37B737B685B7852
:102F10001A46BB7B02FA03F3FB737B689A787B7BD0
:102F20001340DAB2FB7B1343FB73FB7B1B01FB7388
:102F3000164A7B681B781344FA7B83F80023134AF4
:102F40007B681B785B09DBB218467B681B7803F053
:102F50001F03012101FA03F342F820300FE00B496F
:102F60007B681B785B09DBB218467B681B7803F033
:102F70001F0301229A4000F1200341F82320143757
:102F8000BD465DF8047B704700ED00E000E100E025
:102F900080B483B000AF78607B68042B06D1094A07
:102FA000084B1B6843F00403136005E0054A054B1A
:102FB0001B6823F0040313600C37BD465DF8047BE7
:102FC000704700BF10E000E0024B0146186800F0B7
:102FD00003B800BF400800202DE9F04F01F10B05B8
:102FE000162D83B0064627D935F0070500F1B680C7
:102FF000A94200F2B38000F081FAB5F5FC7F22D23D
:10300000C24FE80807EBC003DC689C4200F0C881AF
:103010006368E168A56823F00303234430465A68D7
:10302000E96042F001028D605A6000F069FA0834EC
:10303000204603B0BDE8F08F102900F28F8000F029
:103040005DFA1025DCE7680A00F08F80042800F2A2
:103050005481A80938304100AC4F07EB8101CC689E
:10306000A14206D10CE0002A80F28280E468A142ED
:1030700006D0636823F003035A1B0F2AF3DD0138DF
:103080000130A2493C6901F1080E744500F07D81D0
:10309000636823F003035A1B0F2A00F36381002A9D
:1030A000C1F814E0C1F810E073DAB3F5007F80F0E6
:1030B0003981DB0801EBC3084FEAA30C4A68D8F852
:1030C0000890C4F80890012303FA0CF31343C4F8E2
:1030D0000C804B60C8F80840C9F80C4082100124ED
:1030E00094409C4262D8234206D120F00300640041
:1030F000234200F10400FAD007EBC008C446814621
:10310000DCF80C309C4507D141E1002980F2518167
:10311000DB689C4500F03B815A6822F00302511B9A
:103120000F29F2DD1C46D3F80CC054F8088F5A1949
:1031300045F0010941F00105C3F804903046C8F894
:103140000CC0CCF808807A613A61C2F80CE0C2F891
:1031500008E05560515000F0D3F969E700240C23D2
:103160002046336003B0BDE8F08F7E213F2073E737
:103170002344E1685A68A56842F00102E9603046DC
:103180008D605A6000F0BCF90834204603B0BDE8F9
:10319000F08F234430465A6842F001025A6000F032
:1031A000AFF90834204603B0BDE8F08FBC6863680F
:1031B00023F00308454504D8C5EB08030F2B00F3A3
:1031C0008C80534BDFF858A11A68DAF800300133CD
:1031D0002A4404EB080B00F0508102F580520F32B4
:1031E00022F47F6222F00F0211463046019200F075
:1031F00089F9B0F1FF3F8146019A00F0478183458C
:1032000000F2EE80434B1968CB451144196000F081
:103210004281DAF80000DFF808E101301BBFCBEB98
:10322000090B5944CEF80090196019F0070100F01D
:103230000781C1F10800C1F58051814408314A4439
:10324000C2F30B02C2EB010A51463046019300F073
:1032500059F9431C019B00F02C81C9EB0002524438
:1032600042F001021968C7F808905144BC42C9F8FD
:1032700004201960DFF89CA016D0B8F10F0F40F2BF
:10328000EE806268A8F10C0323F00703E01802F057
:1032900001024FF0050E1A430F2B6260C0F804E0E4
:1032A000C0F808E000F209811B4BBC681A68914223
:1032B00088BF1960194B1A689142626888BF19600B
:1032C00022F003029542A2EB050301D80F2B04DC88
:1032D000304600F015F90024AAE6621943F0010314
:1032E00045F0010565603046BA60536000F008F9AA
:1032F0000834204603B0BDE8F08F142868D954285C
:1033000000F29780280B6E304100A5E604000020F3
:1033100060080020640800205C0800205808002095
:10332000100400205A0A042A55D9142A00F2A78052
:103330005B324FEA420C07EB8C0CDFF8BC81DCF807
:10334000081061457FD04A6822F00302934202D2FE
:1033500089688C45F7D1CA687B68E260A160946097
:10336000CC60BBE6631942F0010745F001056560DA
:1033700030464B610B61C3F80CE0C3F808E05F60B6
:103380009A50083400F0BCF852E64B68A6E609F102
:10339000010919F0030F0CF1080C7FF4B1AE2CE019
:1033A00004F108036469A34208BF02303FF469AE28
:1033B0002EE61A441C465168DB6854F8085F41F059
:1033C000010151603046EB609D6000F099F82FE6F6
:1033D0005B30410040E69A0938324FEA420CAAE7D6
:1033E000BC42454B3FF40EAF9C68626822F003027A
:1033F00068E7D8F8008098457CD110F0030FA8F159
:10340000080300F1FF30F4D17B6823EA04037B60FA
:1034100064009C423FF6CAAE002C3FF4C7AE234284
:1034200048467FF469AE6400234200F10400FAD0FC
:1034300062E6B0F5AA7F18D8E80B773041000BE6BA
:103440004FF48051FBE6D8F8043092104FF0010C95
:103450000CFA02F21343C8F804300A467DE7012350
:10346000C9F804304C4600222CE740F254539842ED
:103470001CD8A80C7C304100EEE51032B4E6542A8A
:1034800023D81A0B6E324FEA420C54E7BC686268CC
:1034900022F0030216E7CBF30B0000287FF4B9AE4D
:1034A0004244BB6842F001025A60FDE6FC217E20E6
:1034B000D2E501224FF0000AD4E604F108013046BB
:1034C00000F080F8DAF80010EEE6B2F5AA7F04D832
:1034D000DA0B77324FEA420C2DE740F254518A4220
:1034E00004D89A0C7C324FEA420C24E74FF0FC0CD3
:1034F0007E2220E77B688BE704000020704700BF36
:10350000704700BF38B5074C0023054608462360C6
:10351000FDF798FE431C00D038BD2368002BFBD07C
:103520002B6038BDE00C0020F8B5234F0C46064652
:10353000FFF7E4FFBB685D6825F00305291B01F672
:10354000EF7121F47F6121F00F01A1F58054B4F5F2
:10355000805F07DB30460021FFF7D4FFBB682B44B8
:10356000984204D03046FFF7CBFF0020F8BD30462C
:103570006142FFF7C7FF01300DD0104BBA681968E0
:103580002D1B45F001053046091B55601960FFF7FA
:10359000B7FF0120F8BD30460021FFF7B3FFBA683E
:1035A000831A0F2BDEDD064C0449246843F0010327
:1035B000001B53600860D5E7040000206408002069
:1035C0001004002000294ED02DE9F0410C46804621
:1035D000FFF794FF54F8047C624927F00102A4F13C
:1035E0000805AB188E6858689E4220F003005AD038
:1035F000FE0758600BD454F8087CED1B01F1080E4F
:10360000AC6874453A4467D0EF68E760BC601C184A
:103610006468E4070CD4544F9C68BC4202447CD0DC
:10362000D868E06042F0010384606B60AA5003E058
:1036300042F001036B60AA50B2F5007F14D2D208A9
:1036400001EBC20348689F68AF609210012404FA3E
:1036500002F21043EB6048609D60FD604046BDE8AB
:10366000F041FFF74DBF7047530A042B47D8930929
:1036700003F13804600001EB80003A49836883421B
:1036800043D0596821F00301914202D99B689842C6
:10369000F7D1DA68EA60AB6040469560DD60BDE86E
:1036A000F041FFF72DBFFF07024407D454F8083C50
:1036B000ED1A1A44A868EB68C36098602B4B1B682E
:1036C00042F001009A4268608D60C7D3284B4046A3
:1036D0001968FFF729FFC1E719184968C90709D414
:1036E000D9689B68024442F00100D9608B60686031
:1036F000AA50B3E742F001036B60AA50AEE7142B67
:1037000014D803F15B046000B5E74A68A4100120F7
:10371000A04002434A601A46BCE742F001034D61F3
:103720000D61EC60AC606B60AA5097E7542B04D835
:10373000130B03F16E0460009DE7B3F5AA7F04D874
:10374000D30B03F17704600095E740F254508342B5
:1037500004D8930C03F17C0460008CE7FC207E24E9
:1037600089E700BF040000200C0000200C040020AA
:10377000600800205C000000222A2B2C3A3B3C3DD4
:103780003E3F5B5D7C7F00008081828384858687ED
:1037900088898A8B8C8D8E8F909192939495969731
:1037A00098998A9B8C8D8E8FA0A1A2A3A4A5A6A771
:1037B000A8A9AAABACADAEAFB0B1B2A3B4B5B6B721
:1037C000B8A5AABBBCBDBCAFC0C1C2C3C4C5C6C737
:1037D000C8C9CACBCCCDCECFD0D1D2D3D4D5D6D7F1
:1037E000D8D9DADBDCDDDEDFC0C1C2C3C4C5C6C7E1
:1037F000C8C9CACBCCCDCECFD0D1D2D3D4D5D6F7B1
:0C380000D8D9DADBDCDDDEFF430000007D
:10380C000100000000000000000000000400002087
:10381C00040000200C0000200C00002014000020EC
:10382C00140000201C0000201C000020240000209C
:10383C00240000202C0000202C000020340000204C
:10384C00340000203C0000203C00002044000020FC
:10385C00440000204C0000204C00002054000020AC
:10386C00540000205C0000205C000020640000205C
:10387C00640000206C0000206C000020740000200C
:10388C00740000207C0000207C00002084000020BC
:10389C00840000208C0000208C000020940000206C
:1038AC00940000209C0000209C000020A40000201C
:1038BC00A4000020AC000020AC000020B4000020CC
:1038CC00B4000020BC000020BC000020C40000207C
:1038DC00C4000020CC000020CC000020D40000202C
:1038EC00D4000020DC000020DC000020E4000020DC
:1038FC00E4000020EC000020EC000020F40000208C
:10390C00F4000020FC000020FC000020040100203A
:10391C00040100200C0100200C01002014010020E7
:10392C00140100201C0100201C0100202401002097
:10393C00240100202C0100202C0100203401002047
:10394C00340100203C0100203C01002044010020F7
:10395C00440100204C0100204C01002054010020A7
:10396C00540100205C0100205C0100206401002057
:10397C00640100206C0100206C0100207401002007
:10398C00740100207C0100207C01002084010020B7
:10399C00840100208C0100208C0100209401002067
:1039AC00940100209C0100209C010020A401002017
:1039BC00A4010020AC010020AC010020B4010020C7
:1039CC00B4010020BC010020BC010020C401002077
:1039DC00C4010020CC010020CC010020D401002027
:1039EC00D4010020DC010020DC010020E4010020D7
:1039FC00E4010020EC010020EC010020F401002087
:103A0C00F4010020FC010020FC0100200402002035
:103A1C00040200200C0200200C02002014020020E2
:103A2C00140200201C0200201C0200202402002092
:103A3C00240200202C0200202C0200203402002042
:103A4C00340200203C0200203C02002044020020F2
:103A5C00440200204C0200204C02002054020020A2
:103A6C00540200205C0200205C0200206402002052
:103A7C00640200206C0200206C0200207402002002
:103A8C00740200207C0200207C02002084020020B2
:103A9C00840200208C0200208C0200209402002062
:103AAC00940200209C0200209C020020A402002012
:103ABC00A4020020AC020020AC020020B4020020C2
:103ACC00B4020020BC020020BC020020C402002072
:103ADC00C4020020CC020020CC020020D402002022
:103AEC00D4020020DC020020DC020020E4020020D2
:103AFC00E4020020EC020020EC020020F402002082
:103B0C00F4020020FC020020FC0200200403002030
:103B1C00040300200C0300200C03002014030020DD
:103B2C00140300201C0300201C030020240300208D
:103B3C00240300202C0300202C030020340300203D
:103B4C00340300203C0300203C03002044030020ED
:103B5C00440300204C0300204C030020540300209D
:103B6C00540300205C0300205C030020640300204D
:103B7C00640300206C0300206C03002074030020FD
:103B8C00740300207C0300207C03002084030020AD
:103B9C00840300208C0300208C030020940300205D
:103BAC00940300209C0300209C030020A40300200D
:103BBC00A4030020AC030020AC030020B4030020BD
:103BCC00B4030020BC030020BC030020C40300206D
:103BDC00C4030020CC030020CC030020D40300201D
:103BEC00D4030020DC030020DC030020E4030020CD
:103BFC00E4030020EC030020EC030020F40300207D
:103C0C00F4030020FC030020FC0300200000020051
:103C1C00FFFFFFFF00000000000000000407002071
:103C2C006C070020D40700200000000000000000FA
:103C3C000000000000000000000000000000000078
:103C4C000000000000000000000000000838000820
:103C5C000000000000000000000000000000000058
:103C6C000000000000000000000000000000000048
:103C7C000000000000000000000000000000000038
:103C8C000000000000000000000000000000000028
:103C9C000000000000000000000000000000000018
:103CAC000000000000000000000000000000000008
:103CBC0000000000000000000000000000000000F8
:103CCC0001000000000000000E33CDAB34126DE695
:103CDC00ECDE05000B0000000000000000000000FE
:103CEC0000000000000000000000000000000000C8
:103CFC0000000000000000000000000000000000B8
:103D0C0000000000000000000000000000000000A7
:103D1C000000000000000000000000000000000097
:04404C001804002034
:0400000508000000EF
:00000001FF
