:020000040800F2
:10000000C0120020410200089D0200089D02000865
:100010009D0200089D0200089D02000800000000EB
:100020000000000000000000000000009D02000829
:100030009D020008000000009D020008A5040008C1
:100040009D0200089D0200089D0200089D02000814
:100050009D0200089D0200089D0200089D02000804
:100060009D0200089D0200089D0200089D020008F4
:100070009D0200089D0200089D0200089D020008E4
:100080009D0200089D0200089D0200089D020008D4
:100090009D0200089D0200089D0200089D020008C4
:1000A0009D0200089D0200089D0200089D020008B4
:1000B0009D0200089D0200089D0200089D020008A4
:1000C0009D0200089D0200089D0200089D02000894
:1000D0009D0200089D0200089D0200089D02000884
:1000E0009D0200089D0200089D0200089D02000874
:1000F0009D0200089D0200089D0200089D02000864
:100100009D0200089D0200089D0200089D02000853
:100110009D0200089D0200089D0200089D02000843
:100120009D0200089D0200089D0200089D02000833
:100130009D0200089D0200089D0200089D02000823
:100140009D0200089D0200089D0200089D02000813
:100150009D0200089D0200089D0200089D02000803
:100160009D0200089D0200089D0200089D020008F3
:100170009D0200089D0200089D0200089D020008E3
:100180009D0200089D02000880B483B000AF0346C2
:10019000FB71084A074B1B6823F004031360FB79CB
:1001A000DB08DAB2044B1A7000BF0C37BD4680BCC6
:1001B000704700BF10E000E04408002080B582B026
:1001C00000AF0346FB8003E040F2E73000F00AF89E
:1001D000FB885A1EFA80002BF6D100BF0837BD46B7
:1001E00080BD00BF80B485B000AF7860124A134B69
:1001F0001B7819467B6803FB01F353600E4B00220A
:100200009A600D4B01221A600B4B1B68FB60FB6868
:1002100003F00103002B04D0FB6803F48033002BB0
:10022000F2D0054B00221A60034B00229A6000BFF7
:100230001437BD4680BC704710E000E04408002041
:1002400080B582B000AF104B7B60104B3B6007E085
:100250003B681A1D3A607A68111D796012681A604D
:100260003B680B4A9342F3D30A480B494FF0000214
:100270008842B8BF40F8042BFADB00F06FF800BFEB
:100280000837BD4680BD00BF8C300008000000204C
:100290004408002044080020C00A002080B400AFB9
:1002A000FEE700BF80B400AF054A054BD3F88830A5
:1002B00043F47003C2F8883000BFBD4680BC70476D
:1002C00000ED00E080B483B000AF03463960FB71FD
:1002D00097F90730002B0BDA0D49FB7903F00F0378
:1002E000043B3A68D2B21201D2B20B441A7609E04A
:1002F000084997F907303A68D2B21201D2B20B44DA
:1003000083F8002300BF0C37BD4680BC704700BF98
:1003100000ED00E000E100E080B582B000AF786061
:100320007B68B3F1807F01D3012311E00A4A7B6827
:1003300023F07F43013B53600F214FF0FF30FFF765
:10034000C1FF054B00229A60034B07221A6000236D
:1003500018460837BD4680BD10E000E090B599B062
:1003600004AF00F0F9FD0121082000F0A1F80121FF
:10037000012000F09DF84FF47043BB63012387F820
:100380003C30002387F83E30032387F83D300023BC
:1003900087F83F3007F1380319463E4800F0F8FC73
:1003A000FFF780FF5020FFF7EFFE00F0DDF86FF061
:1003B000040002F0F5F93848FFF7AEFF0023FB64B4
:1003C0000023BB6400237B64002000F0CBFA334998
:1003D000002002F089F8034687F843304FF40041CB
:1003E0002C4800F063FD07F11C032D49184602F06C
:1003F000A5F8034687F8433097F84330002B02D026
:1004000097F8433041E03A1D07F11C0311461846A6
:1004100002F0FAF8034687F8433097F84330002B90
:1004200002D097F8433030E07B7B002B23D07B6CED
:10043000002B12D16C4607F1100393E8070084E803
:1004400007003B1D0ECBB86C00F04CFEB864BB6CD3
:10045000FB647B6C01337B64D5E76C4607F11003CA
:1004600093E8070084E807003B1D0ECBB86C00F052
:1004700039FEB864C7E700BFBB6CFA6C9A614FF4F1
:100480008041044800F012FDFEE718465437BD468F
:1004900090BD00BF000C0240905F01008C0800205E
:1004A000F02F000880B500AF00F04EFC00BF80BD0B
:1004B00080B483B000AF78600B46FB70FB78002BF4
:1004C00006D00949084B1A6B7B6813430B6306E09F
:1004D0000549054B1A6B7B68DB4313400B6300BF78
:1004E0000C37BD4680BC70470038024080B483B0F2
:1004F00000AF78600B46FB70FB78002B06D00949F3
:10050000084B1A6C7B6813430B6406E00549054BE6
:100510001A6C7B68DB4313400B6400BF0C37BD468D
:1005200080BC70470038024080B400AF054A054BDC
:100530005B8B9BB243F400639BB2538300BFBD4609
:1005400080BC70470004024080B400AF054A054BF0
:100550001B8B9BB243F400639BB2138300BFBD4669
:1005600080BC70470004024080B588B000AF3A4AB2
:10057000394B1B6B43F002031363374A364B1B6C3A
:1005800043F48043136401214FF48040FFF7AEFF32
:1005900001210220FFF78CFF304A304B1B6843F4E7
:1005A000800313602D4A2D4B9B6843F440039360F6
:1005B00005220D21294800F087FC05220E2127483D
:1005C00000F082FC05220F21244800F07DFC4FF44E
:1005D0006043BB6102233B7702237B770123FB77D8
:1005E00007F1180319461D4800F0D2FB0023BB8019
:1005F0004FF48273FB8000233B8102237B81012324
:10060000BB814FF40073FB8108233B8200237B8274
:100610000723BB823B1D1946114802F03DF800211B
:100620000F4802F09DF801210D4802F079F80A4ABE
:10063000094B1B6A43F4004313620A20FFF7BEFD17
:10064000054A054B1B6A23F400431362FFF77CFF46
:1006500000BF2037BD4680BD003802400004024084
:100660000038004080B485B000AF0346FB71002322
:10067000FB7300BF0D4B1B899BB203F00203002BE1
:10068000F8D00A4BFA7992B29A8100BF074B1B89C6
:100690009BB203F00103002BF8D0044B9B899BB263
:1006A000FB7300BF1437BD4680BC70470038004064
:1006B00080B483B000AF0023BB7100BF124B1B8915
:1006C0009BB203F00203002BF8D00F4BFF229A815C
:1006D00000BF0D4B1B899BB203F00103002BF8D028
:1006E0000023FB7102E0FB790133FB71FB79092BDD
:1006F000F9D9054B9B899BB2BB71BB7918460C3766
:10070000BD4680BC704700BF0038004080B582B055
:1007100000AF7860FFF7CCFF03461A467B681A707B
:1007200000BF0837BD4680BD80B582B000AF0B4B1F
:1007300032221A70FFF7BCFFFFF7BAFF0346FB71C6
:10074000FB79FF2B04D0054B1B78DBB2002BF3D1D8
:10075000FB7918460837BD4680BD00BF460800201B
:1007600080B582B000AFFFF7EFFE0023FB7105E01C
:10077000FF20FFF777FFFB790133FB71FB79092B32
:10078000F6D9034B01221A7000BF0837BD4680BD61
:100790004808002080B400AF034B00221A7000BF4D
:1007A000BD4680BC704700BF4808002080B584B0BB
:1007B00000AF78603960174B0A221A70FFF778FF94
:1007C0000346FB73FB7BFF2B04D1124B1B78DBB280
:1007D000002BF3D1FB7BFE2B01D0002316E07B68BE
:1007E0005A1C7A601846FFF791FF7B685A1C7A60A2
:1007F0001846FFF78BFF3B68023B3B603B68002BD2
:10080000EDD1FFF755FFFFF753FF012318461037CF
:10081000BD4680BD4508002080B584B000AF78603B
:100820000B46FB700023BB60FFF77EFF0346FF2BE8
:1008300001D0002340E0FB781846FFF713FFFB7858
:10084000FD2B31D00023BB737B685A1C7A601B7868
:100850001846FFF707FF7B685A1C7A601B7818461A
:10086000FFF700FFBB7B013BBB73BB7B002BEBD1D6
:10087000FFF71EFFFFF71CFF0BE0FFF719FF034612
:10088000FB73FB7B03F01F03052B06D0BB68013312
:10089000BB60BB68402BF0D900E000BF00BFFFF792
:1008A00007FF0346002BFAD0FB7B03F01F03052B49
:1008B00001D1012300E0002318461037BD4680BD5A
:1008C00080B584B000AF03463960FB71FFF72CFFA1
:1008D0000346FF2B01D0FF2340E0FB791846FFF7CA
:1008E000C1FE3B681B0EDBB21846FFF7BBFE3B6840
:1008F0001B0CDBB21846FFF7B5FE3B681B0ADBB2E8
:100900001846FFF7AFFE3B68DBB21846FFF7AAFEBA
:100910000023FB73FB79402B01D19523FB73FB79FB
:10092000482B01D18723FB73FB7B1846FFF79AFE08
:10093000FB794C2B01D1FFF7BBFEE823FB73FFF7DC
:10094000B7FE0346BB73BB7B5BB2002B05DAFB7BB8
:10095000013BFB73FB7B002BF1D1BB7B18461037AF
:10096000BD4680BD90B585B000AF0346FB71FB79F5
:10097000002B01D00123D5E06C4B1B78DBB203F0D8
:100980000203002B03D0694B1B78DBB2CAE0FFF7F0
:10099000E7FEFFF7C9FD0023BB7300214020FFF7EE
:1009A0008FFF0346012B40F0A580614B64221A7033
:1009B0004FF4D5714820FFF783FF0346012B58D130
:1009C0000023FB730CE0FC7BFFF772FE03461A4624
:1009D00007F11003234403F8082CFB7B0133FB735E
:1009E000FB7B032BEFD9BB7A012B40F08380FB7A92
:1009F000AA2B7FD100217720FFF762FF0346012B4E
:100A000007D84FF080416920FFF75AFF0346002BBB
:100A100005D0474B1B78DBB2002BEBD100E000BFC9
:100A2000434B1B78DBB2002B64D000217A20FFF708
:100A300047FF0346002B5DD10023FB730CE0FC7BDA
:100A4000FFF736FE03461A4607F11003234403F866
:100A5000082CFB7B0133FB73FB7B032BEFD93B7A29
:100A600003F04003002B01D0062300E00223BB73F8
:100A700040E000217720FFF723FF0346012B08D831
:100A800000216920FFF71CFF0346012B01D8022338
:100A900000E00123BB73BB7B022B0ED1002177202A
:100AA000FFF70EFF0346012B0ED800216920FFF748
:100AB00007FF0346002B07D10DE000214120FFF77F
:100AC000FFFE0346002B05D0194B1B78DBB2002B31
:100AD000E1D100E000BF164B1B78DBB2002B07D042
:100AE0004FF400715020FFF7EBFE0346002B01D0BE
:100AF0000023BB730F4ABB7B1370FFF725FDFFF785
:100B0000D7FDBB7B002B08D0084B1B78DBB223F052
:100B10000103DAB2054B1A7001E0FFF73BFE034B0D
:100B20001B78DBB218461437BD4690BD000000208C
:100B3000450800204708002080B483B000AF03467A
:100B4000FB71FB79002B01D0012302E0034B1B78E2
:100B5000DBB218460C37BD4680BC70470000002051
:100B600080B584B000AFB9607A601A460346FB7363
:100B70001346BB73FB7B002B02D1BB7B002B01D147
:100B8000042351E02A4B1B78DBB203F00103002B56
:100B900001D0032348E0274B1B7803F00403002B0C
:100BA00002D17B685B027B60FFF7BEFCBB7B012B45
:100BB00011D179685120FFF783FE0346002B29D11C
:100BC0004FF40071B868FFF7F1FD0346002B21D008
:100BD0000023BB731EE079685220FFF771FE0346C5
:100BE000002B17D14FF40071B868FFF7DFFD034603
:100BF000002B0AD0BB6803F50073BB60BB7B013BD5
:100C0000BB73BB7B002BEDD100E000BF00214C206B
:100C1000FFF756FEFFF798FCFFF74AFDBB7B002B62
:100C200014BF01230023DBB218461037BD4680BD38
:100C3000000000204708002080B584B000AFB960F4
:100C40007A601A460346FB731346BB73FB7B002B8B
:100C500002D1BB7B002B01D104236CE0384B1B7805
:100C6000DBB203F00103002B01D0032363E0344B1C
:100C70001B78DBB203F00403002B01D002235AE0FF
:100C8000304B1B7803F00403002B02D17B685B021E
:100C90007B60FFF749FCBB7B012B10D179685820A2
:100CA000FFF70EFE0346002B3BD1FE21B868FFF78D
:100CB000B3FD0346002B34D00023BB7331E0214B3E
:100CC0001B7803F00203002B08D000217720FFF7E8
:100CD000F7FDBB7B19465720FFF7F2FD79685920D5
:100CE000FFF7EEFD0346002B1BD1FC21B868FFF790
:100CF00093FD0346002B0AD0BB6803F50073BB606D
:100D0000BB7B013BBB73BB7B002BEED100E000BF84
:100D1000FD210020FFF780FD0346002B01D10123B8
:100D2000BB73FFF711FCFFF7C3FCBB7B002B14BFA9
:100D300001230023DBB218461037BD4680BD00BF3B
:100D4000000000204708002080B483B000AF0E4BA5
:100D50001B78FB71FB79002B05D0FB79013BFB7104
:100D6000094AFB791370094B1B78FB71FB79002B47
:100D700005D0FB79013BFB71044AFB79137000BF7E
:100D80000C37BD4680BC704745080020460800204F
:100D900080B487B000AF7860396000237B610023A6
:100DA0003B610023FB6000237B6176E001227B69CD
:100DB00002FA03F33B613B681A683B691340FB602E
:100DC000FA683B699A4265D17B681A687B695B0067
:100DD000032101FA03F3DB431A407B681A607B6846
:100DE0001A683B681B7919467B695B0001FA03F3BB
:100DF0001A437B681A603B681B79012B03D03B6860
:100E00001B79022B2ED17B689A687B695B000321DA
:100E100001FA03F3DB431A407B689A607B689A68A7
:100E20003B685B7919467B695B0001FA03F31A435F
:100E30007B689A607B685A687B699BB2012101FAE2
:100E400003F3DB431A407B685A607B685A683B684F
:100E50009B7919467B699BB201FA03F39BB21A4353
:100E60007B685A607B68DA687B699BB25B00032110
:100E700001FA03F3DB431A407B68DA607B68DA68C7
:100E80003B68DB7919467B695B0001FA03F31A437F
:100E90007B68DA607B6901337B617B690F2B85D9C5
:100EA00000BF1C37BD4680BC704700BF80B483B014
:100EB00000AF78600B467B807B687A881A8300BF1E
:100EC0000C37BD4680BC704780B485B000AF7860F9
:100ED0000B467B8013467B700023FB600023BB60C6
:100EE0007A787B8803F007039B0002FA03F3FB6028
:100EF0007B88DB089BB218467B88DB089BB21A46CE
:100F00007B68083253F822207B8803F007039B009C
:100F10000F2101FA03F3DB4302EA03017B6800F1CE
:100F2000080243F822107B88DB089BB21A467B68D4
:100F3000083253F82220FB681343BB607B88DB0830
:100F40009BB21A467B680832B96843F8221000BF8A
:100F50001437BD4680BC704780B500AF124A124BB3
:100F60001B6843F0010313600F4B00229A600E4A86
:100F70000D4B1B6823F0847323F4803313600A4BFA
:100F80000A4A5A60084A084B1B6823F480231360FE
:100F9000054B0022DA6000F00DF8054B4FF00062BF
:100FA0009A6000BF80BD00BF0038024010300024AE
:100FB00000ED00E080B483B000AF00237B6000232D
:100FC0003B60354A344B1B6843F480331360324B2B
:100FD0001B6803F400333B607B6801337B603B6834
:100FE000002B03D17B68B3F5A06FF0D12A4B1B68AF
:100FF00003F40033002B02D001233B6001E0002307
:101000003B603B68012B42D1234A234B1B6C43F0CE
:1010100080531364214A214B1B6843F480431360BF
:101020001D4A1D4B9B6893601B4A1B4B9B6843F4F6
:1010300000439360184A184B9B6843F4A053936095
:10104000154B174A5A60144A134B1B6843F08073C0
:10105000136000BF104B1B6803F00073002BF9D026
:10106000104B40F205621A600B4A0B4B9B6823F051
:1010700003039360084A084B9B6843F002039360A4
:1010800000BF054B9B6803F00C03082BF9D100BF90
:101090000C37BD4680BC70470038024000700040ED
:1010A00008544007003C024080B485B000AF78602F
:1010B0000A4B1B68002B02D1084B094A1A60074BE8
:1010C0001B68FB60054B1A687B681344034A136076
:1010D000FB6818461437BD4680BC70474C0800209A
:1010E000C00A002084B0B0B584B000AF786007F1CA
:1010F000240080E80E001C2001F06EFB0346FB601C
:10110000FB681D4607F124040FCC0FC594E80300CB
:1011100085E80300FB6800229A617B68002B02D0FF
:101120007B68FA689A61FB6818461037BD46BDE8CF
:10113000B04004B0704700BF80B487B000AFF86023
:10114000B9607A60FB687B6105E07B695A1C7A6153
:10115000BA68D2B21A707B685A1E7A60002BF4D13A
:1011600000BF1C37BD4680BC704700BF80B489B04B
:1011700000AFF860B9607A60FB68FB61BB68BB6177
:1011800000237B6100BF7B685A1E7A60002B0DD064
:10119000FB695A1CFA611B781946BB695A1CBA6173
:1011A0001B78CB1A7B617B69002BECD07B691846DE
:1011B0002437BD4680BC704780B483B000AF7860F0
:1011C000396002E07B6801337B607B681B78002B11
:1011D00005D07B681B781A463B689A42F2D17B683F
:1011E0001B7818460C37BD4680BC704780B584B06C
:1011F00000AF786039607B68DB6AFB60FA683B6847
:101200009A4248D07B681B79002B30D07B68587895
:101210007B6803F130010123FA68FFF70DFD0346F7
:10122000002B01D0012337E07B6800221A717B6814
:101230001A6A7B68DB691A44FB689A4217D97B6893
:10124000DB78FB7210E07B68DB69FA681344FB60B3
:101250007B6858787B6803F130010123FA68FFF757
:10126000EBFCFB7A013BFB72FB7A012BEBD83B6872
:10127000002B10D07B6858787B6803F13001012384
:101280003A68FFF76DFC0346002B01D0012303E011
:101290007B683A68DA62002318461037BD4680BD85
:1012A00080B483B000AF786039603B68023B3B603C
:1012B0007B689B699A1E3B689A4201D8002308E02C
:1012C0007B689B781A463B6803FB02F27B689B6A4B
:1012D000134418460C37BD4680BC704780B586B0B5
:1012E00000AF786039603B68012B04D97B689A694C
:1012F0003B689A4201D801239BE07B681B78022B54
:1013000046D0032B64D0012B40F091803B687B6179
:101310007B695B087A6913447B617B681A6A7B6925
:101320005B0A134419467868FFF760FF0346002BF9
:1013300076D17B69C3F308037A68134493F830309D
:101340003B617B6901337B617B681A6A7B695B0A5D
:10135000134419467868FFF749FF0346002B61D113
:101360007B69C3F308037A68134493F830301B0297
:101370001A463B6913433B613B6803F00103002BB2
:1013800002D03B691B0954E03B69C3F30B0350E0F7
:101390007B681A6A3B681B0A134419467868FFF792
:1013A00025FF0346002B3FD13B685B0003F4FF732E
:1013B00030337A681344FB60FB6801331B781B02EF
:1013C0009AB2FB681B789BB213439BB29BB230E08E
:1013D0007B681A6A3B68DB09134419467868FFF793
:1013E00005FF0346002B21D13B689B0003F4FE73ED
:1013F00030337A681344FB60FB6803331B781A06AA
:10140000FB6802331B781B041343FA68013212781D
:1014100012021343FA681278134323F0704308E072
:1014200000BF04E000BF02E000BF00E000BF4FF0DB
:10143000FF3318461837BD4680BD00BF80B588B061
:1014400000AFF860B9607A60BB68012B04D9FB6813
:101450009A69BB689A4202D80223FB77E7E0FB68EF
:101460001B78022B72D0032B00F09180012B40F0EF
:10147000D180BB68BB61BB695B08BA691344BB61BF
:10148000FB681A6ABB695B0A13441946F868FFF7E0
:10149000ADFE0346FB77FB7F002B40F0BE80BB69AF
:1014A000C3F308033033FA6813447B61BB6803F06D
:1014B0000103002B0FD07B691B78DBB203F00F0315
:1014C000DAB27B681B01DBB223F00F03DBB21343FC
:1014D000DBB2DBB201E07B68DBB27A691370BB6917
:1014E0000133BB61FB6801221A71FB681A6ABB6990
:1014F0005B0A13441946F868FFF778FE0346FB774A
:10150000FB7F002B40F08B80BB69C3F308033033B3
:10151000FA6813447B61BB6803F00103002B03D01E
:101520007B681B09DBB20EE07B691B78DBB223F022
:101530000F03DAB27B681B0ADBB203F00F03DBB2E6
:101540001343DBB2DBB27A6913706DE0FB681A6A91
:10155000BB681B0A13441946F868FFF747FE0346A9
:10156000FB77FB7F002B5CD1BB685B0003F4FF7350
:101570003033FA6813447B617B68DAB27B691A7096
:101580007B6901337A681212D2B21A704CE0FB68A0
:101590001A6ABB68DB0913441946F868FFF726FE90
:1015A0000346FB77FB7F002B3DD1BB689B0003F418
:1015B000FE733033FA6813447B617B6903331B7815
:1015C0001A067B6902331B781B0413437A690132C4
:1015D0001278120213437A691278134303F07043AE
:1015E0007A6813437B607B68DAB27B691A707B6927
:1015F00001337A681212D2B21A707B6902337A68A8
:10160000120CD2B21A707B6903337A68120ED2B20E
:101610001A7009E00223FB7706E000BF04E000BF78
:1016200002E000BF00E000BFFB6801221A71FB7FEF
:1016300018462037BD4680BD80B586B000AF7860C3
:1016400039603B68002B0DD17B68DB683B613B69EF
:10165000002B04D07B689A693B699A4215D8012314
:101660003B6112E039687868FFF738FEB860BB6804
:10167000012B01D8012364E07B689A69BB689A4218
:1016800001D9BB685DE03B683B613B697B617B697D
:1016900001337B617B689A697B699A4207D8022390
:1016A0007B617A693B699A4201D9002349E07969F3
:1016B0007868FFF713FEB860BB68002B0ED0BB68DC
:1016C000B3F1FF3F02D0BB68012B01D1BB6838E00A
:1016D0007A693B699A42DAD1002332E000BF6FF0A9
:1016E000704279697868FFF7A9FE0346FB73FB7BBC
:1016F000002B09D13B68002B06D07A6939687868DD
:10170000FFF79CFE0346FB73FB7B002B10D17B682D
:101710007A69DA607B681B69B3F1FF3F10D07B68A0
:101720001B695A1E7B681A617B6801225A7107E0A7
:10173000FB7B012B02D14FF0FF3300E001237B61E3
:101740007B6918461837BD4680BD00BF80B584B0A0
:1017500000AF78600B467B807B687A88DA807B6894
:101760009B68FB60FB68012B05D07B681B689A694E
:10177000FB689A4201D8022366E0FB68002B08D17F
:101780007B681B681B78032B03D17B681B685B6A33
:10179000FB60FB68002B14D17B68FA68DA607B6819
:1017A0001B681B897A889A4201D302234CE07B682C
:1017B0001B685B6A7A88120992B21A447B681A61C4
:1017C00036E07B681B689B789BB21B017B811BE02A
:1017D0007B681B68F9681846FFF780FDF860FB68B6
:1017E000B3F1FF3F01D101232EE0FB68012B05D9A6
:1017F0007B681B689A69FB689A4201D8022323E040
:101800007A887B89D31A7B807A887B899A42DFD257
:101810007B68FA68DA607B681B68F9681846FFF72E
:101820003FFD02467B881B099BB21A447B681A6104
:101830007B681B6803F130027B8803F00F035B01B8
:101840001A447B685A61002318461037BD4680BD94
:1018500090B585B000AF786039607B68DB88013374
:101860003B813B89002B03D07B681B69002B01D196
:101870000423BDE03B8903F00F039BB2002B40F033
:10188000A8807B681B695A1C7B681A617B68DB68CF
:10189000002B08D17B681B681B893A899A42C0F0EB
:1018A00098800423A4E03B891B099BB21A467B68FD
:1018B0001B689B78013B1340002B40F08A807B68BB
:1018C0001A687B68DB6819461046FFF707FDF86069
:1018D000FB68012B01D802238AE0FB68B3F1FF3FCC
:1018E00001D1012384E07B681B689A69FB689A42F6
:1018F00063D83B68002B01D1042379E07B681A6828
:101900007B68DB6819461046FFF796FEF860FB68B7
:10191000002B01D107236BE0FB68012B01D10223CF
:1019200066E0FB68B3F1FF3F01D1012360E07B6813
:101930001B6800211846FFF759FC0346002B01D015
:10194000012355E07B681B6830334FF4007200219F
:101950001846FFF7F1FB7B681C687B681B68F96819
:101960001846FFF79DFC0346E3620023FB7216E076
:101970007B681B6801221A717B681B68002118466E
:10198000FFF734FC0346002B01D0012330E07B68D5
:101990001B68DA6A0132DA62FB7A0133FB727B6818
:1019A0001B689B78FA7A9A42E2D37B681B687A6854
:1019B0001268D16AFA7A8A1ADA627B68FA68DA609F
:1019C0007B681B68F9681846FFF76AFC02467B686B
:1019D0001A617B683A89DA807B681B6803F1300200
:1019E0003B8903F00F035B011A447B685A610023B3
:1019F00018461437BD4690BD80B586B000AF7860FC
:101A000000217868FFF7A2FE0346FB75FB7D002BE3
:101A100001D0FB7D37E07B681A687B681B6919463B
:101A20001046FFF7E3FB0346FB75FB7D002B26D139
:101A30007B685B693B613B691B78FB73FB7B002B1D
:101A400002D10423FB751DE03B690B331B7803F0C7
:101A50000803002B09D17B689B690B221946386962
:101A6000FFF784FB0346002B0BD000217868FFF7BB
:101A7000EFFE0346FB75FB7D002BCCD002E000BFE0
:101A800000E000BFFB7D18461837BD4680BD00BF93
:101A900080B586B000AF78600423FB752EE07B68CC
:101AA0001A687B681B6919461046FFF79FFB0346BF
:101AB000FB75FB7D002B26D17B685B693B613B6935
:101AC0001B78FB73FB7B002B02D10423FB751FE00B
:101AD000FB7BE52B09D0FB7B2E2B06D03B690B3320
:101AE0001B7803F00803002B0FD000217868FFF764
:101AF000AFFE0346FB75FB7D002B08D17B681B699D
:101B0000002BCCD104E000BF02E000BF00E000BF2A
:101B1000FB7D002B02D07B6800221A61FB7D1846FA
:101B20001837BD4680BD00BF80B588B000AF786073
:101B300039607B689B69FB600B222021F868FFF706
:101B4000FBFA0023FB7700233B613B697B610823A1
:101B5000BB613B681B68BB607B695A1C7A61BA68D1
:101B600013441B78BB77BB7F202B53D9BB7F2F2B14
:101B700050D0BB7F5C2B4DD0BB7F2E2B03D03A695E
:101B8000BB699A420FD3BB69082B02D1BB7F2E2BB6
:101B900001D0062373E008233B610B23BB61FB7F6D
:101BA0009B00FB7735E0BB7F5BB2002B08DAFB7F45
:101BB00043F00303FB77BB7F803B334AD35CBB77A7
:101BC000BB7F19463148FFF7F7FA0346002B01D0D7
:101BD000062354E0BB7F402B07D9BB7F5A2B04D888
:101BE000FB7F43F00203FB770CE0BB7F602B09D93E
:101BF000BB7F7A2B06D8FB7F43F00103FB77BB7FCB
:101C0000203BBB773B695A1C3A61FA681344BA7FA0
:101C10001A70A1E7BA687B691A443B681A60BB7FF7
:101C2000202B01D8042300E00023BB773B69002B65
:101C300001D1062323E0FB681B78E52B02D1FB686A
:101C400005221A70BB69082B02D1FB7F9B00FB7732
:101C5000FB7F03F00303012B03D1BB7F43F0100391
:101C6000BB77FB7F03F00C03042B03D1BB7F43F056
:101C70000803BB77FB680B33BA7F1A700023184642
:101C80002037BD4680BD00BF08300008F82F00088F
:101C900080B489B000AF786039603B680933BB61BC
:101CA0007B681B69002B78D07B685B693B613B6973
:101CB0001B7BFB730023FB6114E03A69FB6913444F
:101CC0001B78FB75FB7D202B10D0FB7D052B01D1F4
:101CD000E523FB75BB695A1CBA61FA7D1A70FB6972
:101CE0000133FB61FB69072BE7D900E000BF3B69CB
:101CF00008331B78202B1CD0BB695A1CBA612E22DA
:101D00001A700823FB610FE03A69FB6913441B78E2
:101D1000FB75FB7D202B0BD0BB695A1CBA61FA7D89
:101D20001A70FB690133FB61FB690A2BECD900E0F7
:101D300000BF3B69DA7A3B681A723B691F331B7834
:101D40001A063B691E331B781B0413433A691D3284
:101D50001278120213433A691C3212781A433B6814
:101D60001A603B6919331B781B029AB23B6918331E
:101D70001B789BB213439BB29AB23B689A803B6933
:101D800017331B781B029AB23B6916331B789BB240
:101D900013439BB29AB23B68DA80BB6900221A7087
:101DA00000BF2437BD4680BC704700BF80B584B0FB
:101DB00000AF786039603B681B782F2B03D03B68FD
:101DC0001B785C2B02D13B6801333B607B680022AF
:101DD0009A603B681B781F2B09D800217868FFF7B1
:101DE000B5FC0346FB737B6800225A6156E03B4614
:101DF00019467868FFF798FE0346FB73FB7B002BC0
:101E000045D17868FFF7F8FD0346FB737B689B6953
:101E1000DB7ABB73FB7B002B0AD0FB7B042B38D116
:101E2000BB7B03F00403002B35D10523FB7332E0A9
:101E3000BB7B03F00403002B2FD17B685B69BB6085
:101E4000BB680B331B7803F01003002B02D1052372
:101E5000FB7323E0BB6815331B781B029AB2BB6887
:101E600014331B789BB213439BB29BB21B04BA681A
:101E70001B321278120291B2BA681A32127892B2F8
:101E80000A4392B292B21A437B689A60AFE700BFEE
:101E900004E000BF02E000BF00E000BFFB7B18468B
:101EA0001037BD4680BD00BF80B582B000AF7860FE
:101EB00039607B6858787B6803F1300101233A6808
:101EC000FEF74EFE0346002B01D003234BE07B6858
:101ED00003F22E2301331B781B029AB27B6893F81E
:101EE0002E329BB213439BB21BB2214A934201D0C4
:101EF000022338E07B68663303331B781A067B685D
:101F0000663302331B781B0413437A68663201324E
:101F10001278120213437A6892F86620134323F072
:101F20007F43144A934201D100231CE07B68823333
:101F300003331B781A067B68823302331B781B0439
:101F400013437A68823201321278120213437A689C
:101F500092F88220134323F07F43064A934201D133
:101F6000002300E0012318460837BD4680BD00BFAE
:101F700055AAFFFF4641540080B592B000AFF8600B
:101F8000B9601346FB71FB681B68FB62FB6A1B7838
:101F9000303B3B643B6C092B0BD8FB6A01331B784D
:101FA0003A2B06D1FB6A0233FB62FB68FA6A1A60BD
:101FB00001E000233B643B6C002B01D00B2360E26B
:101FC000A64A3B6C52F82330BB62BB68BA6A1A60FF
:101FD000BB6A002B01D10C2353E2BB6A1B78002B98
:101FE0001AD0BB6A5B781846FEF7A6FD034687F851
:101FF000273097F8273003F00103002B0CD1FB7931
:10200000002B07D097F8273003F00403002B01D0F2
:102010000A2336E2002334E2BB6A00221A703B6CCA
:10202000DAB2BB6A5A70BB6A5B781846FEF79AFC54
:10203000034687F8273097F8273003F00103002B79
:1020400001D003231DE2FB79002B07D097F827303E
:1020500003F00403002B01D00A2312E20023FB63E8
:10206000F96BB86AFFF720FF034687F8473097F807
:102070004730012B22D1BB6A03F5F7733B623B6A01
:1020800004331B78002B19D03B6A0B331B781A06DC
:102090003B6A0A331B781B0413433A6A09321278ED
:1020A000120213433A6A083212781343FB63F96B46
:1020B000B86AFFF7F9FE034687F8473097F84730CC
:1020C000032B01D10123DCE197F84730002B01D02D
:1020D0000D23D6E1BB6A93F83C301B029AB2BB6A6F
:1020E00093F83B309BB213439BB21BB2B3F5007F16
:1020F00001D00D23C5E1BB6A93F847301B029AB2A9
:10210000BB6A93F846309BB213439BB29BB2BB634E
:10211000BB6B002B12D1BB6A93F857301A06BB6A0F
:1021200093F856301B041343BA6A92F855201202F2
:102130001343BA6A92F854201343BB63BB6ABA6B69
:10214000DA61BB6A93F84030FB77BB6AFA7FDA70DA
:10215000FB7F012B04D0FB7F022B01D00D2390E1EC
:10216000FA7FBB6B02FB03F3BB63BB6A93F83D30A2
:10217000FB77BB6AFA7F9A70FB7F002B05D0FA7F52
:10218000FB7F013B1340002B01D00D2379E1BB6A9B
:1021900093F842301B029AB2BB6A93F841309BB26B
:1021A00013439BB29AB2BB6A1A81BB6A1B8903F0C4
:1021B0000F039BB2002B01D00D2362E1BB6A93F8A1
:1021C00044301B029AB2BB6A93F843309BB213436C
:1021D0009BB29BB27B637B6B002B12D1BB6A93F8E3
:1021E00053301A06BB6A93F852301B041343BA6A81
:1021F00092F8512012021343BA6A92F85020134306
:102200007B63BB6A93F83F301B029AB2BB6A93F8B8
:102210003E309BB213439BB2BB83BB8B002B01D1DF
:102220000D232EE1BA8BBB6B1344BA6A12891209D3
:1022300092B21344BB617A6BBB699A4201D20D23FF
:102240001FE17A6BBB69D31ABA6A9278B3FBF2F3D7
:102250007B617B69002B03D10D2312E15008002024
:10226000012387F847307B6940F6F572934202D923
:10227000022387F847307B694FF6F572934202D903
:10228000032387F847307B699A1CBB6A9A61FA6B13
:10229000BB691A44BB6A9A62BA8BFB6B1A44BB6A6D
:1022A0001A6297F84730032B1ED1BB6A1B89002B9B
:1022B00001D00D23E5E0BB6A93F85F301A06BB6AD4
:1022C00093F85E301B041343BA6A92F85D20120241
:1022D0001343BA6A92F85C201A43BB6A5A62BB6A1B
:1022E0009B699B003B631FE0BB6A1B89002B01D1EC
:1022F0000D23C6E0BB6A1A6ABB6B1A44BB6A5A62FA
:1023000097F84730022B03D1BB6A9B695B000AE058
:10231000BB6A9A6913465B0013445A08BB6A9B69FF
:1023200003F0010313443B63BB6ADA693B6B03F2BE
:10233000FF135B0A9A4201D20D23A2E0BB6A4FF061
:10234000FF321A61BB6A0022DA6097F84730032B2C
:1023500040F08280BB6A00225A71BB6A93F86130F8
:102360001B029AB2BB6A93F860309BB213439BB2D4
:102370009BB21A46FB6B1A44BB6A5A61BB6A587817
:10238000BB6A03F13001BB6A5A690123FEF7E8FB1F
:102390000346002B60D1BB6A93F82F321B029AB21E
:1023A000BB6A93F82E329BB213439BB21BB2374ADF
:1023B000934251D1BB6A93F833301A06BB6A93F843
:1023C00032301B041343BA6A92F8312012021343CD
:1023D000BA6A92F8302013432D4A93423CD1BB6A2B
:1023E00093F817321A06BB6A93F816321B0413438C
:1023F000BA6A92F8152212021343BA6A92F81422AA
:102400001343244A934227D1BB6A93F81F321A061A
:10241000BB6A93F81E321B041343BA6A92F81D225A
:1024200012021343BA6A92F81C221A43BB6ADA609A
:10243000BB6A93F81B321A06BB6A93F81A321B0464
:102440001343BA6A92F8192212021343BA6A92F835
:1024500018221A43BB6A1A61BB6A97F847201A70A0
:102460000D4B1B8801339AB20B4B1A800A4B1A880A
:10247000BB6ADA80BB6A0022DA62BB6A00221A7188
:10248000002318464837BD4680BD00BF55AAFFFF50
:1024900052526141727241615408002080B582B08D
:1024A00000AF78600B467B807B68002B08D07B6890
:1024B0001B78002B04D07B68DB887A889A4201D095
:1024C00009230CE07B685B781846FEF735FB034672
:1024D00003F00103002B01D0032300E00023184682
:1024E0000837BD4680BD00BF80B485B000AF03464D
:1024F0003960FB71FB79002B01D00B2316E0FB79CF
:102500000D4A52F82330FB60FB68002B02D0FB68B9
:1025100000221A703B68002B02D03B6800221A7020
:10252000FB7905493A6841F82320002318461437FF
:10253000BD4680BC704700BF5008002080B586B003
:1025400000AF7860396079683B4600221846FFF793
:1025500013FD0346FB75FB7D002B4FD17B6807F114
:1025600008029A613B6819467868FFF71FFC03462A
:10257000FB75FB7D002B3CD17B685B69002B2AD06F
:102580007B685B690B331B7803F01003002B20D0B2
:102590007B685B6915331B781B029AB27B685B69A9
:1025A00014331B789BB213439BB29BB21B047A6813
:1025B00052691B321278120291B27A6852691A3249
:1025C000127892B20A4392B292B21A437B689A602E
:1025D00001E00523FB75FB7D002B0AD17B681B689E
:1025E000DA887B689A8000217868FFF7AFF80346A5
:1025F000FB75FB7D042B01D10523FB75FB7D184684
:102600001837BD4680BD00BF80B586B000AF78608A
:1026100039607B681A687B689B8819461046FFF70B
:102620003DFF0346FB75FB7D002B2FD13B68002B44
:1026300006D100217868FFF789F80346FB7525E08D
:102640007B6807F108029A617868FFF721FA034670
:10265000FB75FB7D042B04D17B6800221A610023EB
:10266000FB75FB7D002B11D139687868FFF710FBF3
:1026700000217868FFF7ECF80346FB75FB7D042B1F
:1026800004D17B6800221A610023FB75FB7D18468C
:102690001837BD4680BD00BF80B485B000AF7860FC
:1026A00039600023FB817B681B88FB81FB8903F475
:1026B0004153FB813B681A883B685B8813439AB29D
:1026C0003B689B8813439AB23B68DB8813439AB2FA
:1026D0003B681B8913439AB23B685B8913439AB2E8
:1026E0003B689B8913439AB23B68DB8913439AB2D8
:1026F000FB891343FB817B68FA891A807B689B8B7B
:102700009BB223F400639AB27B689A833B681A8A6F
:102710007B681A8200BF1437BD4680BC704700BF7B
:1027200080B483B000AF78600B46FB70FB78002B61
:1027300008D07B681B889BB243F040039AB27B6849
:102740001A8007E07B681B889BB223F040039AB293
:102750007B681A8000BF0C37BD4680BC704700BF45
:1027600080B483B000AF78600B46FB70FB78002B21
:1027700008D07B681B889BB243F400539AB27B68F5
:102780001A8007E07B681B889BB223F400539AB23F
:102790007B681A8000BF0C37BD4680BC704700BF05
:1027A00080B483B000AF78607B68042B06D1094AFF
:1027B000084B1B6843F00403136005E0054A054B12
:1027C0001B6823F00403136000BF0C37BD4680BCB8
:1027D000704700BF10E000E0024B0146186800F0AF
:1027E00003B800BF400800202DE9F04F01F10B05B0
:1027F000162D83B0064640F29F8035F0070500F1A4
:10280000BF80A94200F2BC8000F0A6FAB5F5FC7FBB
:10281000C0F09C826B0A00F0BA80042B00F2838126
:10282000A80900F1390E4FEA4E033830C44F07EBC8
:102830008303A3F108015C68A14207D1ACE0002A40
:1028400080F2AC80E468A14200F0A680636823F0C7
:1028500003035A1B0F2AF2DDB9493C6901F1080E46
:10286000744500F0B381636823F003035A1B0F2AF9
:1028700000F39981002AC1F814E0C1F810E080F259
:102880009E80B3F5007F80F06781DB0803F1010CC7
:1028900001229B1002FA03F34A6851F83C80C4F805
:1028A000088001EBCC091A43A9F10803E3604A60F0
:1028B00041F83C40C8F80C40831001249C409442ED
:1028C00000F28A80144206D120F003006400144212
:1028D00000F10400FAD007EBC009CC468046DCF8D2
:1028E0000C108C4507D173E1002A80F28181C96800
:1028F0008C4500F06D814B6823F003035A1B0F2AAF
:10290000F2DD0C46D1F80CC054F8088F4B1945F095
:1029100001054D6042F00101C8F80CC03046CCF80A
:1029200008807B613B61C3F80CE0C3F808E05960A4
:102930009A5000F013FA1FE0102921D800F00CFA89
:102940001025062302207E4F07EB8303A3F1080224
:102950005C68944200F045816368E168A56823F0F3
:102960000303234430465A68E96042F001028D6057
:102970005A6000F0F3F90834204603B0BDE8F08F48
:1029800000240C232046336003B0BDE8F08F802381
:102990004FF0400E3F2049E770465DE72344E16871
:1029A0005A68A56842F00102E96030468D605A60BD
:1029B00000F0D4F90834204603B0BDE8F08F23447A
:1029C00030465A6842F001025A6000F0C7F90834F4
:1029D000204603B0BDE8F08FBC68636823F00308AD
:1029E000A84504D3C5EB08030F2B00F38C80554B8F
:1029F000DFF860911A68D9F8003001332A4404EBFB
:102A0000080A00F0608102F580520F3222F47F62E2
:102A100022F00F0211463046019200F0A1F9B0F108
:102A2000FF3F8346019A00F05881824500F2FC8006
:102A3000454B1968DA451144196000F05381D9F803
:102A40000000DFF810E101301BBFCAEB0B0A514454
:102A5000CEF800B019601BF0070100F01781C1F13A
:102A60000800C1F58051834408315A44C2F30B0277
:102A7000C2EB010949463046019300F071F9431C4D
:102A8000019B00F03F81CBEB00024A4442F001027F
:102A90001968C7F808B04944BC42CBF80420196053
:102AA000DFF8A49016D0B8F10F0F40F2FD806268F5
:102AB000A8F10C0323F00703E01802F001024FF025
:102AC000050E1A430F2B6260C0F804E0C0F808E05E
:102AD00000F21C811D4BBC681A68914288BF1960C6
:102AE0001B4B1A689142626888BF196022F003028A
:102AF0009542A2EB050301D80F2B04DC304600F011
:102B00002DF9002438E7621943F0010345F001056F
:102B100065603046BA60536000F020F90834204602
:102B200003B0BDE8F08F142B71D9542B00F2A480B0
:102B3000280B00F16F0E4FEA4E036E3076E600BFB1
:102B40000400002060080020640800205C080020C9
:102B500058080020100400205A0A042A5ED9142ABA
:102B600000F2B38002F15C0149005B3207EB810C9B
:102B700057F82110DFF8DC81ACF1080C8C4500F02F
:102B800088804A6822F00302934202D289688C4509
:102B9000F7D1D1F80CC07A68C4F80CC0A160CCF8A9
:102BA0000840CC6088E6631942F0010745F0010552
:102BB000656030464B610B61C3F80CE0C3F808E078
:102BC0005F609A50083400F0C9F8D5E64A6873E6A9
:102BD00008F1010818F0030F0CF1080C7FF47FAE28
:102BE00030E0DC68A34208BF02303FF435AEB3E604
:102BF0000B440C465A68C96854F8085F42F0010259
:102C00005A603046E9608D6000F0A8F8B4E603F140
:102C10005C0E03F15B004FEA4E0307E69A0902F1EE
:102C2000390149003832A1E7BC424A4B3FF400AFBA
:102C30009C68626822F003025AE759F808399945FE
:102C400040F0828010F0030F00F1FF30F5D17B6877
:102C500023EA04037B6064009C423FF6BDAE002C77
:102C60003FF4BAAE1C4240467FF435AE64001C42CD
:102C700000F10400FAD02EE6B3F5AA7F18D8E80BCD
:102C800000F1780E4FEA4E037730CFE54FF48051D4
:102C9000EBE60121D8F80430921001FA02F21A434F
:102CA000C8F80420614677E70123CBF8043025E714
:102CB00040F25452934220D8A80C00F17D0E4FEA06
:102CC0004E037C30B2E51032A4E6542A26D81A0B03
:102CD00002F16F0149006E3248E7BC68626822F079
:102CE000030205E7CAF30B0000287FF4A8AE4244B4
:102CF000BB6842F001025A60ECE6FE234FF07F0E03
:102D00007E2093E501224FF00009C1E604F108019D
:102D1000304600F085F8D9F80010DBE6B2F5AA7F5E
:102D200005D8DA0B02F17801490077321EE740F24C
:102D300054518A4205D89A0C02F17D0149007C3237
:102D400014E7FE217E2211E77B6884E7E808431C34
:102D50005B00F8E504000020704700BF704700BF2B
:102D600038B5074C0023054608462360FEF79CF95A
:102D7000431C00D038BD2368002BFBD02B6038BD2E
:102D8000BC0A0020F8B5234F0C460646FFF7E4FFC7
:102D9000BB685D6825F00305291B01F6EF7121F47E
:102DA0007F6121F00F01A1F58054B4F5805F07DB4E
:102DB00000213046FFF7D4FFBB682B44984204D073
:102DC0003046FFF7CBFF0020F8BD61423046FFF7E9
:102DD000C7FF01300DD0104BBA6819682D1B45F0A4
:102DE00001053046091B55601960FFF7B7FF012048
:102DF000F8BD00213046FFF7B3FFBA68831A0F2BE6
:102E0000DEDD064C0449246843F00103001B5360D7
:102E10000860D5E7040000206408002010040020AA
:102E2000002945D02DE9F0410D468046FFF794FF7B
:102E300055F8047C6A4927F00103A5F10804E2185B
:102E40008E685068B24220F0030062D0FE075060E6
:102E50000BD455F8087CE41B01F1080EA5687545F4
:102E60003B446FD0E768EF60BD6015186D68ED07F3
:102E700042D543F001026260E350B3F5007F18D2FF
:102E8000DB085A1C4D6851F83270A76001209B1076
:102E900000FA03F301EBC2001D430838E0604D6007
:102EA00041F83240FC604046BDE8F041FFF756BFB4
:102EB00070475A0A042A53D89A0902F139077F0049
:102EC00002F1380501EB870051F827204449083802
:102ED00090424DD0516821F003018B4202D292689A
:102EE0009042F7D1D068E060A2608460D460404630
:102EF000BDE8F041FFF732BF95683A4FBD42034449
:102F00003FD0D068E86043F0010285606260E35022
:102F1000B3E7FF07034407D455F8082CA41A134459
:102F2000A068E268C26090602F4A126843F0010016
:102F3000934260608C60B6D32C4B40461968FFF713
:102F400021FFB0E711184968C90744D49168D268D5
:102F5000CA60034443F0010091606060E350A2E75F
:102F6000142A17D802F15C077F0002F15B05A9E77C
:102F7000AA104B68012505FA02F213434B60024682
:102F8000B1E743F001024C610C61E560A56062604D
:102F9000E35088E7542A06D81A0B02F16F077F0026
:102FA00002F16E058EE7B2F5AA7F06D8DA0B02F1C0
:102FB00078077F0002F1770584E740F2545082429F
:102FC00006D89A0C02F17D077F0002F17C0579E7B3
:102FD000FE277E2576E743F001026260E35062E758
:102FE000040000200C0000200C04002060080020D9
:102FF0004D75736963000000222A2B2C3A3B3C3D3F
:103000003E3F5B5D7C7F0000808182838485868774
:1030100088898A8B8C8D8E8F9091929394959697B8
:1030200098998A9B8C8D8E8FA0A1A2A3A4A5A6A7F8
:10303000A8A9AAABACADAEAFB0B1B2A3B4B5B6B7A8
:10304000B8A5AABBBCBDBCAFC0C1C2C3C4C5C6C7BE
:10305000C8C9CACBCCCDCECFD0D1D2D3D4D5D6D778
:10306000D8D9DADBDCDDDEDFC0C1C2C3C4C5C6C768
:10307000C8C9CACBCCCDCECFD0D1D2D3D4D5D6F738
:0C308000D8D9DADBDCDDDEFF4300000005
:10308C00010000000000000000000000040000200F
:10309C00040000200C0000200C0000201400002074
:1030AC00140000201C0000201C0000202400002024
:1030BC00240000202C0000202C00002034000020D4
:1030CC00340000203C0000203C0000204400002084
:1030DC00440000204C0000204C0000205400002034
:1030EC00540000205C0000205C00002064000020E4
:1030FC00640000206C0000206C0000207400002094
:10310C00740000207C0000207C0000208400002043
:10311C00840000208C0000208C00002094000020F3
:10312C00940000209C0000209C000020A4000020A3
:10313C00A4000020AC000020AC000020B400002053
:10314C00B4000020BC000020BC000020C400002003
:10315C00C4000020CC000020CC000020D4000020B3
:10316C00D4000020DC000020DC000020E400002063
:10317C00E4000020EC000020EC000020F400002013
:10318C00F4000020FC000020FC00002004010020C2
:10319C00040100200C0100200C010020140100206F
:1031AC00140100201C0100201C010020240100201F
:1031BC00240100202C0100202C01002034010020CF
:1031CC00340100203C0100203C010020440100207F
:1031DC00440100204C0100204C010020540100202F
:1031EC00540100205C0100205C01002064010020DF
:1031FC00640100206C0100206C010020740100208F
:10320C00740100207C0100207C010020840100203E
:10321C00840100208C0100208C01002094010020EE
:10322C00940100209C0100209C010020A40100209E
:10323C00A4010020AC010020AC010020B40100204E
:10324C00B4010020BC010020BC010020C4010020FE
:10325C00C4010020CC010020CC010020D4010020AE
:10326C00D4010020DC010020DC010020E40100205E
:10327C00E4010020EC010020EC010020F40100200E
:10328C00F4010020FC010020FC01002004020020BD
:10329C00040200200C0200200C020020140200206A
:1032AC00140200201C0200201C020020240200201A
:1032BC00240200202C0200202C02002034020020CA
:1032CC00340200203C0200203C020020440200207A
:1032DC00440200204C0200204C020020540200202A
:1032EC00540200205C0200205C02002064020020DA
:1032FC00640200206C0200206C020020740200208A
:10330C00740200207C0200207C0200208402002039
:10331C00840200208C0200208C02002094020020E9
:10332C00940200209C0200209C020020A402002099
:10333C00A4020020AC020020AC020020B402002049
:10334C00B4020020BC020020BC020020C4020020F9
:10335C00C4020020CC020020CC020020D4020020A9
:10336C00D4020020DC020020DC020020E402002059
:10337C00E4020020EC020020EC020020F402002009
:10338C00F4020020FC020020FC02002004030020B8
:10339C00040300200C0300200C0300201403002065
:1033AC00140300201C0300201C0300202403002015
:1033BC00240300202C0300202C03002034030020C5
:1033CC00340300203C0300203C0300204403002075
:1033DC00440300204C0300204C0300205403002025
:1033EC00540300205C0300205C03002064030020D5
:1033FC00640300206C0300206C0300207403002085
:10340C00740300207C0300207C0300208403002034
:10341C00840300208C0300208C03002094030020E4
:10342C00940300209C0300209C030020A403002094
:10343C00A4030020AC030020AC030020B403002044
:10344C00B4030020BC030020BC030020C4030020F4
:10345C00C4030020CC030020CC030020D4030020A4
:10346C00D4030020DC030020DC030020E403002054
:10347C00E4030020EC030020EC030020F403002004
:10348C00F4030020FC030020FC03002000000200D9
:10349C00FFFFFFFF000000000000000004070020F9
:1034AC006C070020D4070020000000000000000082
:1034BC000000000000000000000000000000000000
:1034CC000000000000000000000000008830000830
:1034DC0000000000000000000000000000000000E0
:1034EC0000000000000000000000000000000000D0
:1034FC0000000000000000000000000000000000C0
:10350C0000000000000000000000000000000000AF
:10351C00000000000000000000000000000000009F
:10352C00000000000000000000000000000000008F
:10353C00000000000000000000000000000000007F
:10354C0001000000000000000E33CDAB34126DE61C
:10355C00ECDE05000B000000000000000000000085
:10356C00000000000000000000000000000000004F
:10357C00000000000000000000000000000000003F
:10358C00000000000000000000000000000000002F
:10359C00000000000000000000000000000000001F
:0438CC0018040020BC
:0400000508000000EF
:00000001FF
